:020000040800F2
:10000000D8060020D5000008E51F0008171F0008CB
:1000100000000000000000000000000000000000E0
:100020000000000000000000000000006121000846
:100030000000000000000000E71F00086521000824
:10004000000000000000000000000000E7000008C1
:10005000E7000008E7000008E7000008E7000008E4
:100060000000000000000000000000000000000090
:10007000C5090008E7000008E700000800000000CC
:1000800000000000E7000008000000000000000081
:1000900000000000E700000800000000E700000882
:1000A00000000000E700000800000000E700000872
:1000B0000000000000000000000000000000000040
:1000C0000348854600F028FC0048004795090008D1
:1000D000D80600200448804704480047FEE7FEE7B2
:1000E000FEE7FEE7FEE7FEE779210008C100000811
:1000F00030B50B46014600202022012409E00D46C0
:10010000D5409D4205D31D469540491B2546954047
:1001100040191546521E002DF1DC30BD70B500248B
:100120002546002801DA01244042002901DA012590
:100130004942FFF7DDFFAC4200D04042002C00D026
:10014000494270BD024670B54A40D30FDB074000FC
:100150002DD04A002AD0010E140E000212020919F5
:10016000400A520A8418E50104465443000A120A60
:100170002E045043A4194219200CC543AA18120C8E
:100180000125AD03521C521912047F39240400D0FA
:10019000521C104301D44000491EC2B20C06C009D3
:1001A0002018401C4008802A02D003E0002070BDC7
:1001B00040084000002900DA0020184370BD70B5E7
:1001C00002464A40D50F40004A00ED074008520859
:1001D000002814D0002A12D0C40DD30D41020120F2
:1001E000C0055202490A520AE41A091812187D344D
:1001F000914201D3641C00E04900002C01DA002088
:1002000070BD0023914201D3891A0343400849007D
:100210000028F7D100290AD0914202D10121C90753
:1002200005E0914201D2012101E00121C943E0052D
:10023000C018401900F040FA70BD0000F0B5074644
:100240000846584087B0C00F049048000E46590039
:1002500040084908BC1A884105D2384631461E4636
:1002600017460B4602465800400810434CD0300D4C
:10027000039040055900400D490D0590401A029029
:10028000402872DA18030121000B09050843019088
:1002900004980092002805D001995242002088411C
:1002A00000920190029840210A1A0199009800F0EA
:1002B000CFF905460C466B4607CB00F0EAF9C019AA
:1002C0007141039A0E0D0023D71756401A467A4003
:1002D000164344D0049A002A2DD0029A012A039A88
:1002E00015DC1205C01A914101263605001C71412A
:1002F000D20F059ED2070093019202962A4623460A
:1003000000F028FA07B0F0BD38463146FAE7160586
:10031000224A0F46B218C01AB74101210905001C34
:100320004F4100187F41114618187941E20F1043E0
:100330006D19644113E0E2076D0815436408C207B4
:100340001443039A01261205C01A91413605001C78
:100350007141CE07400830434908C01851412A4630
:10036000234600F0EAF9CDE7FFE7049801224000B8
:10037000C117121A00238B4104983146C417381A4A
:10038000A141EEE730B40124E407634030BC55E7F7
:1003900030B40124E407614030BC4FE70000E0FFC7
:1003A000F0B51FB488B00B9909980024484009990A
:1003B000C00F490049080991C0070B9900904900F6
:1003C00049080B9109990898A64608431CD00B9937
:1003D0000A98084318D0099801244000420D4800AB
:1003E000410D099824050003000B204309900B9848
:1003F0000003000B20430B9050181C4940180022AA
:1004000001901446104605E0002001460DB0F0BDF5
:10041000032801DA034600E003239C46C11A0AAE12
:100420000AE05F0008ADED5B4F00F75B7D430027FE
:10043000AA187C41491C5B1E6145F2DD410004ABFA
:100440005A522104120C0A43240C401C0828DFDBFA
:10045000019802900099704601910090059B049AC2
:100460000799069800F076F9D0E700000DFCFFFF31
:10047000F0B50C465C4085B0E40FE40703944C00F3
:100480000026640859009446490802460296224311
:1004900021D062460A431ED06200570D4A000E0367
:1004A0002303550D012402462C492405781B1B0B00
:1004B000360B401823432643614600901C46501AD1
:1004C000B44103D30098401C009002E092180098B9
:1004D0005B41002803DA0020014605B0F0BD002092
:1004E000012109050746864611E064461D46141B96
:1004F000B54106D36546521BB341744607430C43CE
:10050000A646CD0740084908284392185B41054696
:100510000D43EAD11046184313D0604619465040A7
:100520007140084306D06046101AB34106D201223A
:10053000002306E000220123DB0702E00122D24370
:100540005310009874460105381C6141029C039DBC
:100550000019694100F0F1F8BFE70000FD03000059
:1005600010B500229623114600F0AEF810BD000031
:100570000EB505490291002100910A460B460191F2
:1005800000F0E8F803B000BD330400004100400271
:100590000122400AD205090E80187F2901DA0020C5
:1005A0007047962903DC9622511AC8407047963945
:1005B000884070474A0009030123090B1B051943B2
:1005C000094B10B5520D9A4201DA002010BD064BBE
:1005D00034339A4203DC9A1A00F04AF810BD0349FA
:1005E0005118884010BD0000FF030000CDFBFFFF45
:1005F000C20FD207400040080BD0C10D0723DB011A
:10060000C91840020905400A1143C20840071143B6
:100610007047002001467047CB0FDB07490010B53B
:10062000490802460A4307D00A0D07240903E401DA
:10063000090B121B002A01DC002010BDC900440F69
:100640000C43C100E018D205801800F035F810BD49
:1006500010B5202A04DB0146203A9140002010BD4D
:10066000914020239C1A0346E3401943904010BD5B
:1006700010B5202A04DB0846203AD040002110BDE6
:100680000B46D340D0402024A21A9140084319467B
:1006900010BD10B5202A06DBCB170846203A1041C2
:1006A000C1170B4306E00B461341D0402024A21A89
:1006B00091400843194610BD002904DA401C490046
:1006C00001D140084000704770B40024050C05D1EA
:1006D0001024000402D1002921D01124050E01D1DB
:1006E00000020834050F01D10001241D850F01D13E
:1006F0008000A41C002801DB4000641C002908D0F5
:1007000020252E1B0D46F540A14000D00121294394
:10071000084301061B1B000ADB1D02D5002070BC2C
:100720007047DB05181880180029F8DA401C4900CA
:10073000F5D170BC40084000704710B5002B08DAB6
:100740000024401C614192185B411A4301D14008CA
:10075000400010BDF0B51FB482B005460C0003D0B8
:10076000084601F07DFD02E001F07AFD20300246EE
:10077000009021462846FFF76BFF049B059A04462C
:100780000F4618431143084314D0184610431BD09A
:10079000009840210A1A18460599FFF769FF054697
:1007A0000E46009A05990498FFF752FF084305D0BA
:1007B000012004E02046394607B0F0BD0020C117F3
:1007C00005430E432C43374300990E986305401AA6
:1007D0007905E40A00220C43FD0A0A3002D5002004
:1007E0000146E9E70105101969410C9C0D9D0019AE
:1007F0006941FFF7A2FFDFE770B54B005B080343D9
:100800000BD04B005C0D002633466542B341D41734
:10081000AD1AA34102DB0020014670BD120530185D
:10082000514170BDFEB500231A461B1A8A4103DBF5
:100830000020014603B0F0BD4A000D0301212D0B3D
:100840000905520D0D43D10702D100186D41521E0A
:100850005110FF31FF310131002704463E46384632
:10086000009701910246012100200905FFF700FFD2
:10087000C3197141F818324684468E464A41614692
:100880002846611A904104D36046241A9541764661
:100890001F46241900986D41401C00903428E1DD6A
:1008A000F91930467041091BA84103D20022D243F6
:1008B000134601E00022134601980105381C7141DE
:1008C000FFF73BFFB6E700000EB5C217C10F50405F
:1008D000CA0740180021054B0293019200910A4675
:1008E0000B46FFF737FF03B000BD000033040000E4
:1008F00010B5002904DB0124E40740428C41214665
:10090000002B04DB1C460123DB075242A341994222
:1009100000D1904210BD0000064C0125064E05E0B6
:10092000E36807CC2B430C3C98471034B442F7D310
:10093000FFF7CAFB483400086834000870B58C180B
:100940000578401C6B075B0F01D10378401C2A110E
:1009500006D10278401C03E006780E70401C491C4A
:100960005B1EF9D12B0705D40023521E0DD40B704A
:10097000491CFAE70378401CCB1A921C03E01D784F
:100980000D70491C5B1C521EF9D5A142D8D3002022
:1009900070BD0000012210B5D206084B0020810076
:1009A000401C5458C0B25C503028F8D30120044990
:1009B0004007886001F000FE002010BD000000200C
:1009C00000ED00E010B5044800F008F802490C20E2
:1009D0000968086010BD000060010020F8B50368D8
:1009E000186C9F6A80B2214D0024E9791E4E4A009E
:1009F000491CC9B2022F10D09F6A012F28D09B6AD0
:100A0000402B09D1AB78002B06D1B052E9710A29ED
:100A100002D3EC710120A870F8BD154BC318092B47
:100A200002D2EB78022B0DD02B78002BF4D1EB788F
:100A3000002BF1D1B052E9717829EDD3EC7101208E
:100A40002870F8BD0B48007902F022FBEC70F8BD6D
:100A50006B78002BFBD1B052E9717829F7D3EC7198
:100A600001206870F8BD0000C4010020E4000020EF
:100A700004F8FFFFB402002070B5044600688168E6
:100A8000490723D5816810254907002905DA8168BF
:100A9000C90702D081682943816000F05BFF0646E8
:100AA00020688068400711D500F054FF801B0228A1
:100AB00008D9206B28432063606B012108436063E1
:100AC000084670BD206880684007EDD4002070BDE6
:100AD000F8B5044600688168C943C90724D1816814
:100AE0000522114010250126012911D18168B14349
:100AF000816021680220086000F02CFF0746206812
:100B00008068C00710D000F025FFC01B022807D95D
:100B1000206B28432063606B304360630120F8BD85
:100B200020688068C007EED10020F8BD08B500211C
:100B3000009101688A68D243D2071CD08A680F4BA3
:100B40001A400123002A08D0016B102211430163CF
:100B5000416B19434163012008BD886818438860D0
:100B6000084807490068FFF7C3FA0090002802D040
:100B7000401E0090FCD1002008BD00001500008040
:100B800040420F00C400002010B50D4C0122114658
:100B9000204600F0D8FE032002F096FB012202213D
:100BA000204600F0D0FE0A2002F08EFB0022012138
:100BB000204600F0C8FE0A2002F086FB10BD0000AF
:100BC0000014005010B50D4C00220121204600F009
:100BD000BAFE032002F078FB01220221204600F039
:100BE000B2FE0A2002F070FB01221146204600F0FE
:100BF000AAFE0A2002F068FB10BD0000001400509D
:100C000070B5264E05460024472000BF401EFCD28A
:100C100000220221304600F096FEE80705D00122AE
:100C20001146304600F08FFE04E0002201213046DC
:100C300000F089FE472100BF491EFCD2012202219B
:100C4000304600F080FE641C6D08E4B2082CDBD353
:100C500000220221304600F076FE032002F034FB31
:100C600000220121304600F06EFE032002F02CFB32
:100C700001220221304600F066FE032002F024FB30
:100C800000220221304600F05EFE032002F01CFB31
:100C900001221146304600F056FE70BD001400508F
:100CA00010B51D4886B0426B20210A434263406B59
:100CB0001A4C08400590012001900020029002206B
:100CC0000390032000906946204600F0A7FD012212
:100CD0001146204600F037FE01220221204600F096
:100CE00032FE0021C52000F01BF80021C32000F0D7
:100CF00017F80021C42000F013F80021C22000F0F2
:100D00000FF80021C12000F00BF80021C02000F0F6
:100D100007F806B010BD000000100240001400509B
:100D200070B50C460546FFF72FFF4420FFF768FF1C
:100D3000FFF748FFFFF728FF2846FFF761FF20462F
:100D4000FFF75EFFFFF73EFFFFF71EFF8C20FFF768
:100D500057FFFFF737FF70BD38B5264802680121FD
:100D600009050A43026002680A400092224A136B96
:100D70000B431363136B8B43136302680A430260D4
:100D800000681F4C084000901C4D2046256000F074
:100D900025FA002801D000F003FA00206060A0606E
:100DA0002560E0600125042125616161257660767A
:100DB000A0760902E061216260620320A06210480F
:100DC00000F0D4FA002801D000F0EAF90E480D49ED
:100DD000056041600146383800F044FA002801D02F
:100DE00000F0DEF9064800F09FFB002801D000F07B
:100DF000D7F938BD401002400010024000240140E5
:100E000060010020011000009801002038B515484D
:100E10000268C1140A430260006800240840009080
:100E20001248114901607721C16004618460446106
:100E300063218461416001F047F8002801D000F08F
:100E4000AFF90B482021446001600146074801F0DA
:100E500017F8064801F050F8002801D000F0A0F97A
:100E600038BD000040100240002C0140A4010020C9
:100E7000C800002070B5204B1D4C1E4D19881A79F2
:100E80000020265CB1420BD926187678B14207D8EB
:100E9000161A012E02D12E5CB14201D2187103E064
:100EA000401CC0B20B28ECD3E07A814201D90B2060
:100EB0001871124A1879D17A884218D00023022476
:100EC0000A290DD109280BD10D4D0421A962D18B1E
:100ED000491C0904090CD18309D0D072D470D38382
:100EE000D072D470D3711370012001F07DFA70BDFF
:100EF0003801002044010020B4020020E40000205A
:100F000000140050F8B5A349A34E087B0A46557952
:100F1000044604286FD0002708468783012C01D09F
:100F2000022C0ED19B49488B401C80B2488305217E
:100F3000FFF7DEF8012904D19649002D1ED00020CC
:100F40004871944D687901281AD00021C520FFF717
:100F5000E7FE0421C320FFF7E3FE0021C420FFF7D2
:100F6000DFFE0021C220FFF7DBFE0021C120FFF7DA
:100F7000D7FE0021C020FFF7D3FEF8BD0120DFE738
:100F80008648012CC08837D0022C35D06421FFF769
:100F9000AFF8315CC520FFF7C3FE804C0A21E08822
:100FA000FFF7A6F80A21FFF7A3F8715C04200143BC
:100FB000C320FFF7B5FE28790128E08826D00A2152
:100FC000FFF796F8715CC420FFF7AAFE2946287B3C
:100FD0000125002824D00E46411E022970D200218E
:100FE000C220FFF79DFE208841285AD25821C120F7
:100FF000FFF796FE5DE06DE06421FFF779F8315C64
:1010000004200143C520FFF78BFEC6E70A21FFF746
:101010006FF8715C04200143C420FFF781FED5E71F
:10102000887901280FD00E46C88901F049FA0028B6
:1010300002D0B07A0128A0D1B57120884238D128D9
:101040009BD23773F8BD60880246C7382D280CD272
:10105000B178C220FFF764FEB178C120FFF760FECF
:101060003178C020FFF75CFEF8BD64211046FFF721
:101070003FF8315CC220FFF753FE60880A21FFF77A
:1010800037F80A21FFF734F8715CC120FFF748FEFA
:1010900060880A21FFF72CF8715CC020FFF740FE42
:1010A000F8BDFF211431884203D97321C120FFF715
:1010B00037FE0021C020FFF733FE3782F8BDFFE77F
:1010C0000328FBD1F08901F0FBF90028F6D1377332
:1010D000B572F8BD888B0C46401C80B28883052110
:1010E000FFF706F8012903D1002D11D0002060710F
:1010F000607900280ED00021C520FFF711FE0421E1
:10110000C320FFF70DFE0021C420FFF709FE20E0F9
:101110000120ECE7214D64212888FEF7E9FF315CCE
:1011200004273943C520FFF7FBFD28880A21FEF775
:10113000DFFF0A21FEF7DCFF715CC3203943FFF7B4
:10114000EFFD28880A21FEF7D3FF715CC420FFF76A
:10115000E7FDF121C220FFF7E3FD6421A08BFEF73C
:10116000C7FF0A21FEF7C4FF715CC120FFF7D8FD5D
:101170000A21A08BFEF7BCFF0A21FEF7B9FF715CC4
:10118000C020FFF7CDFDA08BC828A2D90020A083E6
:10119000F8BD0000E4000020D0000020B4020020D0
:1011A000FEE7000070B5044600F0D4FB0519094CB9
:1011B0002069C043C00309D400F0CCFBA84201D38E
:1011C000032070BD2069C043C003F5D502482061EB
:1011D000002070BD0020024011800000F8B50546D7
:1011E00004462035287B0027012827D001202873BA
:1011F00020688168C943C9072BD0216BFF220132C7
:101200009143022211432163816892071143816057
:1012100000F0A0FB064620688068002814DA00F081
:1012200099FB801B02280BD9206B022188431021D7
:1012300008432063002028730120F8BD0220F8BD78
:10124000206880680028EADB216B0220814321634B
:1012500004E0206B2021084320630127002028732D
:101260003846F8BDF8B50025044620340095227BA9
:10127000012A37D001262673026893685B0763D47E
:10128000364F4B68BB424BD0936A0F78BE40334316
:101290009362826A002A1FD0012A1DD0022A1BD025
:1012A000032A19D0042A17D0052A15D0062A13D0EC
:1012B000072A11D002688B6856697607760FB34209
:1012C0000AD05369DB08DB005361006842690B7A7E
:1012D0005B075B0F1A4342610868012804D00C28A1
:1012E00002D036E00220F8BD1D4B9A68012807D0D5
:1012F0000120800502439A600868012803D028E095
:101300000120C005F6E7184816490068FEF7F0FE10
:101310000A21484300901CD0401E0090FCD118E0E8
:101320000878864096620868012801D00C2810D100
:101330000B498A68012804D00120800582438A6015
:1013400007E00120C005F9E7016B2022114301638A
:101350000125002020732846F8BD00000110000080
:101360000027014040420F00C4000020F8B50025CE
:101370000446002803D0206B002802D008E001209A
:10138000F8BD002060632C210855204600F09AF833
:10139000206B1022C00600287EDB20688168490788
:1013A0007AD4216B13019943022319432163816885
:1013B000C943C9070CD0C16818239943A3681943CE
:1013C000C160206801696368090109091943016165
:1013D0002068C168394B1940C160207EE1688003F4
:1013E0000143607E636A4603012B02D001231B0385
:1013F00000E000231E4323693143022B06D0002363
:101400001943A67E0123012E02D00AE00423F7E748
:10141000002824D0206B202630432063606B1843C3
:101420006063E0690646FF3EC23E02D0266A304352
:1014300001432068C6680E43C660A06A002812D027
:10144000012810D002280ED003280CD004280AD07E
:10145000052808D0062806D0072804D00FE0012070
:1014600000040143DDE720684669F608F60046619E
:1014700020684669278D7F077F0F3E4346612068BD
:10148000C0680F4E3040884209D100206063206B55
:1014900080088000401C00E00CE0206308E0206B26
:1014A0000221884310432063606B18436063012569
:1014B0002846F8BD206B10432063F8E71BC2FEFFEF
:1014C000E7FF3FC300B5164887B0416B01221143C7
:1014D0004163416B1140134A0591136801210905CD
:1014E0000B43136012680A400592026B0A430263C1
:1014F000026B8A4302634320009003200190002086
:10150000029005206946000700F088F90022114684
:101510000C2000F06BFA0C2000F05EFA07B000BD62
:10152000001002404010024070B504460068806818
:10153000400731D425462035287B012807D00120DB
:1015400028732046FFF7F2FA010002D025E00220BE
:1015500070BD206B124A1040FF22013210432063FD
:1015600000206063287320681C23036060690422E4
:101570000828206807D045681D43456020688368B7
:101580001343836009E043689343436020684368E2
:1015900018252B434360F1E70221084670BD000087
:1015A000FEF1FFFF70B5054604462035287B012873
:1015B00007D001262E732046FFF75EFA002802D0DE
:1015C00011E0022070BD206841681C2291434160F7
:1015D0002046FFF77DFA002805D1216BFF2201325A
:1015E0009143314321630021297370BD70B50446D6
:1015F00000F0B0F90546601C02D004484068241889
:1016000000F0A8F9401BA042FAD370BD50010020A1
:10161000054901204A69C3071A434A6149690029FB
:1016200000DA00207047000000200240F8B5554F56
:10163000397801297CD00121397053494968534ECA
:1016400009043468490F8A00514989580A68D3B29D
:101650009C4229D17468D501ED0DAC4224D1346986
:101660001204120E94421FD1B4684A68D5B2AC423B
:101670001AD1F4685201520D944215D172698C68E6
:10168000E403E40BA2420FD1B269CC68E403E40B9B
:10169000A24209D1F4690A6995B2AC4204D1346A14
:1016A0009200920C94421DD033600A68D201D20D90
:1016B00072600A881204120E32610A79B2604A68B6
:1016C0005201520DF2608A68D203D20B7261CA686D
:1016D000D203D20BB2610A8A92B2F261096989001F
:1016E000890C31620178CA072A4903D08288D24323
:1016F00092B2CA620278920704D5C36882681B025C
:101700001A434A6203681A07940FFF22032C11D070
:101710005C0718D50B6ADF24240223400469086A99
:101720001D461543A84318432043086217E0FFE70E
:101730000220F8BD056984694369086A1343984328
:1017400020432843F1E71B0709D50B6A44698069E8
:101750000D6ADBB21443A54305431D430D6248697E
:1017600001235B04184348614869DB011843486161
:10177000094802607D20C000FFF714FD0021397088
:10178000F8BD0000C002002000100240002102400D
:101790008033000800200240802002400348416955
:1017A0000122D2061143416101207047002002400E
:1017B000054901204A6983071A434A61496949007A
:1017C00000D500207047000000200240064901209B
:1017D0004A69520007D5054ACA60054ACA60496984
:1017E000490000D400207047002002403B2A19081D
:1017F0007F6E5D4C064900204A69002A07DA054AD7
:101800008A60054A8A604969002900DA0120704728
:101810000020024023016745AB89EFCD0B68002211
:10182000002B7DD0F0B4012494400B68A4462340E3
:1018300074D04C68022C01D0122C0CD1D408A40016
:101840002618356A5407E40E0F27A740BD430F69D9
:10185000A7402F433762066855000324AC400F7938
:10186000A643BF07BF0FAF40374307604E68012E46
:1018700005D0022E03D0112E01D0122E0ED1876872
:10188000CE68A743AE403E43866047686646B7438E
:101890000E79F606F60F96403E434660C668A643AC
:1018A0008C68AC403443C4604C68E40036D595087D
:1018B0001F4CAD002F193D6E9407E40E0F26A64075
:1018C000B54305263607B04201D1002605E0194E82
:1018D000B04201D1012600E00226A6402E43144D5D
:1018E0003E66154E34684F689C43FF0300D51C4389
:1018F000346074684F689C43BF0300D51C43746018
:101900002C684E689C43F60200D51C432C606C6822
:101910004E689C43B60200D51C436C60521C00E02C
:1019200005E00B68D34000D07DE7F0BC70477047FE
:10193000001802400004005080180240006908406E
:1019400000D001207047002A01D081617047816278
:101950007047000001488068704700005001002077
:1019600002488168426889188160704750010020F0
:1019700010B50024032000F009F8002801D001244C
:1019800001E000F027F8204610BD000070B50F4EB2
:10199000002471680546002915D07D20C000FEF79F
:1019A000A7FB01460A480068FEF7A2FB00F04AFACE
:1019B000002808D1042D06D200222946401E00F03E
:1019C00015F8356000E00124204670BD500100206C
:1019D000C400002070470000C106C90E01208840E5
:1019E000014908607047000000E100E08207D30E63
:1019F000FF229A408907090E994000280BDA000758
:101A0000000F0838830808489B001818C3699343DF
:101A10000B43C3617047830804489B001818036890
:101A200093430B430360704700ED00E000E400E0E7
:101A3000002801D101207047F8B5044650480D46F2
:101A40000068C007C00FA84218D24D4F3868400840
:101A5000400028433860FFF77DFF06463868C0071E
:101A6000C00FA8420AD0FFF775FF811B454881428D
:101A700062D83868C007C00FA842F4D12068424E2F
:101A800081070DD5400704D5B06807210903084335
:101A9000B060B0680F2109028843A1680843B060B4
:101AA0002078C0072DD06068012807D0002809D011
:101AB0003649096A890708D40120F8BD31688903CD
:101AC000FAD502E031684905F6D5B168C908C90000
:101AD0000143B160FFF73EFF0746B06862683821F6
:101AE0000840D20090420CD0FFF734FFC11B2548BC
:101AF000814221D8B068382108406168C900884215
:101B0000F2D11F480168C907C90FA9421CD9006852
:101B10001B494008400028430860FFF71BFF0746A9
:101B200017480068C007C00FA8420DD0FFF712FF8A
:101B3000C11B1448814201D90320F8BD1048006838
:101B4000C007C00FA842F1D12078400706D5B06881
:101B5000072109038843E1680843B06000F01EF8DC
:101B6000B1683C2289091140094A515CC906C90E75
:101B7000C8400849086008480068FFF707FFF8BD3B
:101B80000020024088130000001002404010024074
:101B900020330008C40000205001002010B51A486E
:101BA00086B01EC8039402930192009100680490CD
:101BB000164881688906490F0CD081688906490F4B
:101BC000012919D080688006400F032817D0002013
:101BD00006B010BD0168406889044A0F0121914098
:101BE0000004400F042800D9002082006846805875
:101BF000FEF77EFA06B010BD054806B010BD012004
:101C0000C00306B010BD0000A03300080010024061
:101C100000366E01002801D101207047F8B5044656
:101C200000783827C007824D00284FD0A868384078
:101C3000082814D00126B6046068B21000281FD00E
:101C4000A06800287ED029690C23994301432961AB
:101C5000606890420AD128681043286016E028681E
:101C6000800333D5606800286CD02FE0052109047B
:101C7000884205D12868304328602868104304E072
:101C80002868904328602868B0432860606800286E
:101C90000ED0FFF75FFE06462868800316D4FFF7D4
:101CA00059FE801BC82875D828688003F7D50DE039
:101CB000FFF750FE06462868800307D5FFF74AFE67
:101CC000801BC82866D828688003F7D4207880074E
:101CD00071D5AE683E4023D0FF21E0680131002875
:101CE000286858D00722D202904322691043286006
:101CF000286808432860FFF72DFE0646286840053F
:101D000007D4FFF727FE801B022843D82868400528
:101D1000F7D568686169000C0004084368604AE010
:101D20002868400502D5E068002869D068686169C4
:101D3000000C000408436860FFF70CFE07462868A3
:101D4000400500E05CE009D4FFF704FEC01B022858
:101D500066D828684005F7D5002E14D128680721D9
:101D6000C9028843216908432860FFF717FF01462D
:101D7000A8683C22800910402E4A105CC006C00EA4
:101D8000C1402D4801602D480068FFF7FFFD002885
:101D900036D110E044E088432860FFF7DBFD0646BB
:101DA0002868400507D5FFF7D5FD801B022837D8E6
:101DB00028684005F7D42078000736D5A868204D5C
:101DC0008006400F032815D0A0690028286A19D082
:101DD000012108432862FFF7BDFD0446286A8007F9
:101DE00023D4FFF7B7FD001B022819D8286A800703
:101DF000F7D51AE0286A800717D5A069002814D102
:101E00000120F8BD400840002862FFF7A3FD04460A
:101E1000286A800709D5FFF79DFD001B022801D91C
:101E20000320F8BD286A8007F5D40020F8BD000023
:101E30000010024020330008C400002050010020A0
:101E4000401002400B4910B4401E884202D910BC19
:101E5000012070470849486108480722C3691B02EE
:101E60001B0A4C042343C361002088610A6110BC33
:101E700070470000FFFFFF0000E000E004ED00E01D
:101E8000427F012A01D10220704770B401254577B5
:101E9000022282770268546893687026B4430E6801
:101EA00026435660074C0268A24204D18024496848
:101EB000A3431943916085770021417770BC0846A0
:101EC00070470000002C0140002801D1012070471C
:101ED00010B50446807F002803D16077204600F0CB
:101EE0000AF80220A077211D206800F08DF901205A
:101EF000A077002010BD70470221817701688A68B1
:101F000001235207520F062A02D00A681A430A60B8
:101F1000837700207047FEE7F0B51FA1086883B003
:101F200049681F4E0A25019100903078012804D09D
:101F300030780028F9D003B0F0BD7821194800F0BE
:101F400067FA194F1949388000240A5D904205D973
:101F50000A195278904201D8254603E0641CE4B285
:101F60000B2CF2D3C97A884200D90B256846007839
:101F70000024A842DFD96E46305D3871084902203E
:101F8000C870C820FFF732FB641CE4B2305DA84281
:101F9000F1D803B0F0BD00000A0604020000000002
:101FA000E4000020C4010020B40200203801002019
:101FB00010B50121052049030007FFF7BFFC0849C0
:101FC000002809D00720C8810A8C80B2824202D042
:101FD00008840020088210BDFF202E30F3E70000A7
:101FE000E400002070477047F8B5284D284C298838
:101FF00001220B46413B0026207BD32B1FD3002818
:1020000004D0032802D0012801D01FE02273FF2052
:1020100014300227814203D9002001F02FF82773E2
:102020002888412812D2208B401C80B22083C828E7
:102030000CD3002001F022F82683277317E04439DF
:10204000CD2903D2012805D0022809D0207B002801
:1020500002D00CE026736271A079012804D006E05A
:1020600062710320207302E0012001F007F80949A2
:10207000A868884202DD0422227302E0227B042A3F
:1020800002D1884200DA2673F8BD0000B4020020B5
:10209000E40000200000E04070B52E4DE88A401CAE
:1020A000E88228782C4E0024012826D178212B485C
:1020B00000F0AEF93080FEF7DDFE30886A8A90428B
:1020C00008D0297A491CC9B22972052903D92C7272
:1020D000688201E02C721046F080322801D2322052
:1020E000F080E878002804D1E88AC82801D30020CD
:1020F00000E0062000F078F92C706878012809D1FA
:10210000EC827821154800F083F97080012000F0FE
:102110006BF96C70A87801281BD1104800F014FAF4
:10212000B060FEF733FAAA8A80B2904208D0697A8A
:10213000491CC9B26972052903D96C72A88201E0F1
:102140006C721046FEF70CFAB060AC70012000F023
:102150004BF970BDE4000020B4020020C40100204F
:102160007047000010B5FFF7FBFB02490020087024
:1021700010BD0000C00000200748416807484268C1
:102180000123120C12045B031A43114341600449FA
:10219000C003886070470000000FFF1F001002405E
:1021A00000ED00E0F8B50024084E27460C20254637
:1021B0004543705D002803D0A81980688047775593
:1021C000641CE4B2042CF1D3F8BD00000801002027
:1021D00030B400200B4C01250C2141430B4609195A
:1021E0004A88002A07D0521E1204120C4A8002D1DB
:1021F0008A884A80E554401CC0B20428ECD330BC25
:10220000704700000801002030B40268124CA04260
:1022100004D1134670254A68AB431A430F4BA042C2
:1022200001D0984204D103252D02AA43CD682A4348
:102230008025AA434D692A4302608A68C2620A68FF
:102240008262A04201D0984201D109690163012153
:10225000416130BC70470000002C01400044014047
:102260002021020C01D010211046020A01D0104694
:102270000839020901D01046091F820801D0104612
:10228000891E420801D0881E7047081A7047000056
:102290004900CA020243100000D004204A0D01D0B8
:1022A00001221043044A490D914201D10221084301
:1022B000012800D105207047FF070000F8B504464B
:1022C0004F1EC8000838211815461E460868496880
:1022D0003A4606239A4310D02A463346FEF760F862
:1022E0003A46D200083AA3181A687F1E5B68FDF7C9
:1022F000A5FF06223B469343EED1022F23D0042FA5
:1023000011D0062F2FD12A463346FEF749F8E36A4B
:10231000A26AFDF793FF2A463346FEF741F8636A47
:10232000226AFDF78BFF2A463346FEF739F8E36948
:10233000A269FDF783FF2A463346FEF731F8636949
:102340002269FDF77BFF2A463346FEF729F8E3684A
:10235000A268FDF773FF2A463346FEF721F863684B
:102360002268FDF76BFFF8BD002210B5134610463A
:102370000149FEF77DF810BD0000F03F10B5FDF7F4
:102380005DFF10BD002210B5134610461146FEF742
:102390006FF810BD10B50721024A00200907FEF7AB
:1023A0002BFA10BD01030000034A10B500201107ED
:1023B000FEF722FA10BD000001FDFFFF02E008C891
:1023C000121F08C1002AFAD170477047002001E0AF
:1023D00001C1121F002AFBD17047000001490860AB
:1023E000704700005C01002010B504460648FFF766
:1023F000D9F80648014604603838FEF733FF024832
:10240000FFF792F810BD0000600100209801002045
:10241000F3B5002081B00F4604460090002929D969
:1024200001986100405AFEF7A3F81E4A1E4BFDF7C3
:10243000B7FF00221D4BFEF71BF81D4A1D4BFDF791
:10244000A1FF00221C4BFDF7ABFF012300229B07DD
:1024500000F016F905460E460098FEF7C9F82A4620
:102460003346FDF7EBFEFEF7D7F8641CE4B20090AC
:10247000BC42D5D33846FEF773F801460098FDF705
:102480009EFEFEF7B5F800F027FFFEF7C5F8FEF751
:10249000AFF80022094BFDF7D1FEFEF78BF880B2B2
:1024A00003B0F0BD8FC2F5285C0F144000FEAF40B2
:1024B0000AD7A3703D0A0440001071400000E03FBD
:1024C00070B51F4E0546308A0521401C80B230820F
:1024D0000446FDF70DFE002904D1307900280AD00A
:1024E00000203071681E0A214843A04205DC00200C
:1024F0003082307170BD0120F3E70A204543281B6C
:102500000A21FDF70BFE85B264212846FDF7F0FD98
:102510000C4C215CC220FEF703FC0A212846FDF783
:10252000E7FD0D460A21FDF7E3FD615CC120FEF7E2
:10253000F7FB615DC020FEF7F3FB012070BD0000DA
:10254000E4000020D0000020024610B50020014623
:102550004B00D35A491C1818C9B20A29F8D3FEF700
:1025600007F800220D4BFDF783FF0D4A0D4BFDF7D9
:1025700017FF00220C4BFDF77BFF00220B4BFDF7F2
:1025800001FF490049080022094BFDF771FFFEF7E2
:1025900043F80849FDF7D6FD10BD000000002440B7
:1025A0008FC2F5285C0F144000FEAF4000000840C9
:1025B0000080474000007A4494B0FFF7D9F9002426
:1025C0000A940B200090FF2008940130019403909E
:1025D000049406942748029409940B94008A0121DC
:1025E000C004C00CC903401805906846FFF712FBF1
:1025F000002801D0FEF7D4FD0720089009940A9422
:1026000000210B9408A8FFF713FA002801D0FEF769
:10261000C7FD0320FFF7BAF91748006A400414D435
:10262000FFF7E8F8FFF7D2F808200C90DF2000024F
:1026300011906F20400212900CA8FEF7F7FFFEF7F2
:10264000E7FFFFF7B5F8FFF7A9F8FEF7DFFBFEF7A6
:1026500083FB00F001FEFEF723FBFFF75DFC074C58
:1026600001252078002802D12570FFF7B1FDFFF782
:1026700099FDF6E7000FFF1F00200240C000002078
:10268000F0B51FB496B084460C460246199D1898C2
:102690000390490068006300490840080193002A3C
:1026A00001D0012600E000269E19FE4BF6185B10B3
:1026B0009E422BD36E00039F0296002F00D001276D
:1026C000F719F84EF84BBE199E421FD3039E0346DE
:1026D000F64F334309D03B469C4201D1002A04D037
:1026E000019B002A05D0012604E0002039461BB0DA
:1026F000F0BD00269E19EE4B9E4207D8039F029E16
:10270000002F00D00127F6199E4207D92B466046BC
:102710002146189AFFF732FE1BB0F0BD0023002CB3
:1027200029DAE44EB04226DAE34EB04201DB02235E
:1027300021E0DE4EB0421EDBE04E070DBE19142E26
:1027400009DD3427BF1B039EFE400196BE40039F58
:10275000BE420BD00FE0039F002F0CD11427BF1BEC
:102760000646FE400196BE40864204D1019BDE072C
:10277000F60F02239B1B0E46164318D1002D16DAC6
:10278000002C03D0022B01D0012B06D00220FFF732
:1027900025FEFFF7E9FD1BB0F0BD0220FFF71EFE8E
:1027A000FFF7E2FD0122D20751401BB0F0BD039EAE
:1027B000002E61D1BF4EB04220D1C148844201D128
:1027C000002A08D0B948814209DB002D10DB189897
:1027D00029461BB0F0BD0020B4491BB0F0BD002D50
:1027E00006DA01222946D207189851401BB0F0BDE5
:1027F000B4497944086849681BB0F0BDAB4FB84292
:1028000025D1002D1FDA002904D0B14212D1002AAF
:1028100009D018E0002A72D1A649E20F0020D207A1
:1028200011431BB0F0BD0020E20F0146D207114357
:102830001BB0F0BDB14206DA234600203946FDF751
:1028400017FE1BB0F0BD104621461BB0F0BDB142D3
:1028500012DA0126B607B54203D1234610461946BF
:10286000FEE3994EB54207D1261E05DB10463146E0
:1028700000F032FD1BB0F0BD67007F081646002A4D
:1028800040D100290AD08B4A914229D1002C0EDD7B
:10289000002D1CDB002011461BB0F0BD022B16D012
:1028A000002C14D0012B12D1002C14DB0FE0002CD3
:1028B00028DA002D09DB012B03D000207D491BB055
:1028C000F0BD002081491BB0F0BD012B03D00020DA
:1028D00001461BB0F0BD00200121C9071BB0F0BDAF
:1028E000724A91420ED1002C01DA002B17D0022B34
:1028F00006D00020C043FDF7E7FF1BB0F0BD90E21B
:102900000120F8E7E217521C94461A4307D0002230
:102910000892664C62465B1E1A4307D009E001200C
:10292000FFF75CFDFFF72EFD1BB0F0BD0022644CED
:102930000892674A90427DDD664B674A98421FDDE8
:10294000914202DC002D05DB4DE05848814217DB47
:10295000002D48DD0220FFF741FDFFF71BFD054676
:102960000E460022534B21460898FDF719FD0846F4
:1029700071004908C00FC007014328461BB0F0BDD5
:10298000914215DA002D2EDA0220FFF727FDFFF71E
:1029900001FD05460E460022464B21460898FDF7EC
:1029A000FFFC72005208C80FC0070243114617E02F
:1029B0003E4B994223DD002D15DD0220FFF70EFD71
:1029C000FFF7E8FC05460E4600223A4B21460898E0
:1029D000FDF7E6FC084671004908C00FC007014337
:1029E00028461BB0F0BD0220FFF7F8FCFFF7DCFC27
:1029F00049004908E20FD20711431BB0F0BD002285
:102A000030463946FDF7BEFC012205460E46D2434C
:102A1000FDF7F2FE314A324BFDF7BAFC2A46334647
:102A2000FDF7BEFC0022284BFDF7B2FC07462A4604
:102A3000334600E064E0039110461946FDF7B0FC10
:102A40003A46039BFDF7ACFC074603220991520767
:102A5000244B28463146FDF7A3FC07910C90224AEF
:102A6000204B38460999FDF79BFC074601911F4A08
:102A70001F4B28463146FDF793FC3A46019BFDF774
:102A800081FC07460B460246099107990C98FDF711
:102A9000D5FB00250E462846079B0C9AFDF772FCD5
:102AA0003A4627E0FFFF1F00FFFF0F000000F03F46
:102AB0000000E0FF0000F07F0000404301FCFFFF4A
:102AC0000000F0BF4A0C00000000E03F0000F0FFF3
:102AD0000000E0410000F043FFFFEF3F5555555522
:102AE0005555D53F4715F73FFE822B6544DF5DF80E
:102AF0000BAE543E099BFDF74BFC02460B4652E1E0
:102B0000012500202D05A94207DA35223046394635
:102B1000FDF772FE06463420C0430A151218FE481F
:102B2000101803900803FD49000B01430F46FC49B0
:102B3000884201DC002003E0FA49884202DA0120E1
:102B4000119005E0002011900398401C7F1B03901A
:102B500011980597C200F4480F9278448018436892
:102B60000268394630460D930292FDF70BFC07913F
:102B70000C9030460D9B029A0599FDF75FFB0246CB
:102B80000B460020E549FDF773FC09910490079B73
:102B90000C9AFDF705FC129000201090E3480D46BA
:102BA000784400680E900121781049070843119974
:102BB0000D9B890440180121C90447183946029A1F
:102BC0000E98FDF7DFFB3246059BFDF7E1FB024661
:102BD0000B4629461098FDF7E3FB064602913B465B
:102BE00029460E9A1098FDF7DBFB079B0C9AFDF720
:102BF000CFFB3246029BFDF7C5FB099B049AFDF70C
:102C0000CFFB0591129A0A902B4610461946FDF704
:102C1000C7FB06460246C6480F460B4606217844C7
:102C2000FFF74CFB32463B46009104901046194694
:102C3000FDF7B6FB009B049AFDF7B2FB06460F4674
:102C40002B461946129A1098FDF7F8FA059B0A9A36
:102C5000FDF7A6FB32463B46FDF7F0FA109A0791C6
:102C600004902B4610461946FDF79AFBB14E002200
:102C7000334609910290FDF7E1FA079B049AFDF7AC
:102C8000DDFA00200746024633460091FDF77AFB45
:102C9000099B029AFDF776FB079B049AFDF778FBE8
:102CA00006460D913A462946009B1098FDF778FBA1
:102CB00007910C902B463046129A0D99FDF770FB48
:102CC00005460E463A46009B05990A98FDF768FBB3
:102CD00033462A46FDF7B2FA02460B4607460991EB
:102CE00007990C98FDF7AAFA00250E462846079B7F
:102CF0000C9AFDF747FB3A46099BFDF749FB07464F
:102D00000722099152078C4B31462846FDF748FBB4
:102D100007910090894A884B38460999FDF740FB96
:102D200007460191864A874B31462846FDF738FB16
:102D30003A46019BFDF782FA834B7B440F9A9B181E
:102D40001A685B68FDF77AFA029009910398FDF71B
:102D5000BBFD05910490099B029A07990098FDF725
:102D60006DFA7A4B7B440F9A9B181A685B6817467A
:102D70000393FDF763FA059B049AFDF75FFA0E468D
:102D80002846059B049AFDF7FDFA3A46039BFDF79A
:102D9000F9FA079B009AFDF7F5FA099B029AFDF7ED
:102DA000F7FA02460B46199900200C900F46189826
:102DB000FDF7F6FA029104903B460C9A199918987F
:102DC000FDF7E0FA2A463346FDF7EAFA029B049A39
:102DD000FDF734FA09910E902A46334639460C988D
:102DE000FDF7DEFA06460F46099B0E9AFDF726FA16
:102DF000574A0D46914220DB5242AA18024310D195
:102E000032463B46FDF7BEFA04900391514A524BBD
:102E100009990E98FDF712FA039B049AFDF768FDD5
:102E20001ED20220FFF7DAFAFFF7B4FA4900490888
:102E3000E20FD20711431BB0F0BD6A00474B5208A6
:102E40009A420DD3464AAA18024300D0CBE5324637
:102E50003B46FDF797FA099B0E9AFDF749FDF5D918
:102E60006800002340082C490393020D3D4B521883
:102E7000984223DD01200005521CD0404219500029
:102E8000400D401838497944096813468C46374943
:102E9000C1408B4312030121120B09055118142262
:102EA000101AC1400391002D01DA48420390624696
:102EB00030463946FDF766FA06460F4632463B462F
:102EC00009990E98FDF7BAF900252A46284B28469D
:102ED0000591FDF765FA07910C90264A264B284686
:102EE0000599FDF75DFA0091029032463B4628466F
:102EF0000599FDF747FA099B0E9AFDF749FA1F4A13
:102F00001F4BFDF74DFA009B029AFDF797F9074614
:102F10000B460246099135E001FCFFFF0000F03F3F
:102F20008E9803007AB60B005A0800009C08000037
:102F3000C60700000000084009C7EE3FFD033ADC69
:102F4000F5015B14E02F3EBE9A060000600600000B
:102F500000009040FE822B654715973C00CC9040C6
:102F600000346F3F0000E03FB6050000FFFF0F0098
:102F7000432EE63F396CA80C615C20BEEF39FAFEA7
:102F8000422EE63F07990C98FDF758F905460E4684
:102F9000079B0C9AFDF7F6F93A46099BFDF7F8F9FD
:102FA00009912A4633460E9010461946FDF7F8F966
:102FB000074602462F480B46059105217844FFF746
:102FC0007DF93A46059BFDF7EBF92A463346FDF7B6
:102FD000DFF90746019128463146099B0E9AFDF715
:102FE000DFF9099B0E9AFDF729F9012304910C9052
:102FF00000229B0738460199FDF7C4F905910E9010
:103000003A4628463146019BFDF7CAF9059B0E9AC0
:10301000FDF72EFA049B0C9AFDF7B4F92A463346C5
:10302000FDF7B0F90022144BFDF7B2F906460398FC
:103030000D46000541190915002912DC30462946C4
:10304000039AFDF7D9FBFFF723F9042801D1FFF715
:10305000ABF930462946039AFDF7CEFB064601E060
:1030600004E029180B46324621460898FDF798F9E6
:103070001BB0F0BD580400000000F03F05210822FD
:103080000907002801D08A6170478A6270470000F2
:103090000C283DD201007944097949188F4405165E
:1030A00027394B5D6F8193A5B6C704210520000722
:1030B00081628022826108228262654A9162C9012E
:1030C00081626448022181620121AEE00421052071
:1030D0000007816180228261082282625C4A9162DB
:1030E000C90181625B480221816201219DE00421C6
:1030F000052000078162574A0123936108238362F8
:10310000534B9962C90181620221916280218162DF
:10311000704704220520000782614E4901238B611C
:10312000082383624A4B9A62D201826202228A6237
:103130008021816270470421052000078162454A91
:103140000223936108238362414B9962C901816222
:1031500001219162802181627047042205200007CD
:1031600082613C4902238B6108238362384B9A6257
:10317000D201826201228A62802181627047042129
:10318000052000078162CA01826108228262304AFA
:103190009162304902228A6201228A628021816220
:1031A00070470421052000078161CA01826108225D
:1031B0008262274A9162274902228A6201228A6238
:1031C0008021816270470421052000078162CA01C5
:1031D0008262082282621E4A91621E4902228A622B
:1031E00001228A628021816270471948042181622C
:1031F000800481610821816289018162154902226E
:103200008A6201228A62802181627047104804210B
:1032100081618004816208218162890181620D4996
:1032200002228A6201228A628021816270470848F4
:1032300004218161800481610821816289018162A8
:10324000044902228A6201228A628021EDE700009D
:10325000001400500004005010B5184886B0416BAF
:10326000012421434163416B21400591426B0221BE
:103270000A434263426B0A400592436B2022134388
:103280004363406B029110400590A32080000090A2
:1032900003910520019469460007FEF7BFFA032059
:1032A000009069460648FEF7B9FA04200090694686
:1032B0000448FEF7B3FA06B010BD0000001002404B
:1032C000000400500014005018214843401E02D34F
:1032D00000BF401EFCD27047F8B506460C46FDF70D
:1032E000A1FA051E0F4600D00120014349000B48FA
:1032F0004908411AC90F0DD0002E01D0012100E06C
:1033000000210C4361004908401AC00F02D101207E
:10331000FFF764F828463946F8BD00000000F07F4A
:10332000000000000000000000000000000000009D
:10333000000000000000000000000000000000008D
:103340000100000002000000030000000400000073
:10335000060000000700000008000000090000004F
:1033600000093D0000127A000024F400408651015B
:1033700000366E0100093D0000093D0000093D00D6
:103380001C0FFF1F300FFF1F440FFF1F580FFF1FA1
:103390006C0FFF1F1C0FFF1F1C0FFF1F1C0FFF1FB9
:1033A00000093D0000127A000024F400408651011B
:1033B00000366E0100000000000000000000F03F39
:1033C000000000000000F83F0000000000000000C6
:1033D0000000004003B8E23F0000000000000000D1
:1033E00006D0CF43EBFD4C3E033333333333E33F5F
:1033F000FFAB6FDBB66DDB3F4D268F515555D53F8B
:1034000001411DA96074D13F65DBC9934A86CD3F58
:10341000EF4E454A287ECA3F3E5555555555C53F46
:1034200093BDBE166CC166BF2CDE25AF6A56113F38
:10343000F16BD2C541BDBBBED0A4BE726937663E3A
:1034400000000000000000006834000800000020B8
:10345000600100003C090008C4340008600100203D
:1034600078050000CC23000801C593127A8012FA77
:1034700022B9AB63CBDBA2FBEBF35BD83BD9D10426
:10348000520122060217073A012313992022081A33
:103490006402212B050F0C25E803E8032BB11F0C58
:1034A0001A0A02212AE90C101757616B7981909B47
:1034B000AEBED4ED545D686E798696A1B5CBE32996
:0434C00070496B6183
:04000005080000C12E
:00000001FF
