:020000040800F2
:1000000070050020D50000085B1500085715000892
:1000100000000000000000000000000000000000E0
:10002000000000000000000000000000D7150008DC
:100030000000000000000000D5150008D9150008D8
:10004000000000000000000000000000E7000008C1
:10005000E7000008E7000008E7000008E7000008E4
:100060000000000000000000000000000000000090
:1000700081070008E7000008E70000080000000012
:1000800000000000E7000008000000000000000081
:1000900000000000E700000800000000E700000882
:1000A00000000000E700000800000000E700000872
:1000B0000000000000000000000000000000000040
:1000C0000348854600F01EFB004800474D07000826
:1000D000700500200448804704480047FEE7FEE71B
:1000E000FEE7FEE7FEE7FEE7E1150008C1000008B5
:1000F00030B50B46014600202022012409E00D46C0
:10010000D5409D4205D31D469540491B2546954047
:1001100040191546521E002DF1DC30BDF0B50746E2
:100120000846584087B0C00F049048000E4659005A
:1001300040084908BC1A884105D2384631461E4657
:1001400017460B4602465800400810434CD0300D6D
:10015000039040055900400D490D0590401A02904A
:10016000402872DA18030121000B090508430190A9
:1001700004980092002805D001995242002088413D
:1001800000920190029840210A1A0199009800F00B
:10019000C2F905460C466B4607CB00F0CCF9C019F6
:1001A0007141039A0E0D0023D71756401A467A4024
:1001B000164344D0049A002A2DD0029A012A039AA9
:1001C00015DC1205C01A914101263605001C71414B
:1001D000D20F059ED2070093019202962A4623462B
:1001E00000F00AFA07B0F0BD38463146FAE71605C6
:1001F000224A0F46B218C01AB74101210905001C56
:100200004F4100187F41114618187941E20F104301
:100210006D19644113E0E2076D0815436408C207D5
:100220001443039A01261205C01A91413605001C99
:100230007141CE07400830434908C01851412A4651
:10024000234600F0CCF9CDE7FFE7049801224000F7
:10025000C117121A00238B4104983146C417381A6B
:10026000A141EEE730B40124E407634030BC55E718
:1002700030B40124E407614030BC4FE70000E0FFE8
:10028000F0B51FB488B00B9909980024484009992B
:10029000C00F490049080991C0070B990090490017
:1002A00049080B9109990898A64608431CD00B9958
:1002B0000A98084318D0099801244000420D4800CC
:1002C000410D099824050003000B204309900B9869
:1002D0000003000B20430B9050181C4940180022CB
:1002E00001901446104605E0002001460DB0F0BD17
:1002F000032801DA034600E003239C46C11A0AAE34
:100300000AE05F0008ADED5B4F00F75B7D4300271F
:10031000AA187C41491C5B1E6145F2DD410004AB1B
:100320005A522104120C0A43240C401C0828DFDB1B
:10033000019802900099704601910090059B049AE3
:100340000799069800F058F9D0E700000DFCFFFF70
:10035000F0B50C465C4085B0E40FE40703944C0014
:100360000026640859009446490802460296224332
:1003700021D062460A431ED06200570D4A000E0388
:100380002303550D012402462C492405781B1B0B21
:10039000360B401823432643614600901C46501AF2
:1003A000B44103D30098401C009002E092180098DA
:1003B0005B41002803DA0020014605B0F0BD0020B3
:1003C000012109050746864611E064461D46141BB7
:1003D000B54106D36546521BB341744607430C43EF
:1003E000A646CD0740084908284392185B410546B8
:1003F0000D43EAD11046184313D0604619465040C9
:100400007140084306D06046101AB34106D201225B
:10041000002306E000220123DB0702E00122D24391
:100420005310009874460105381C6141029C039DDD
:100430000019694100F0D3F8BFE70000FD03000098
:10044000C217C10F504010B54018CA0796230021AB
:1004500000F08CF810BDC20FD207400040080BD04E
:10046000C10D0723DB01C91840020905400A1143E9
:10047000C208400711437047002001467047CB0F68
:10048000DB07490010B5490802460A4307D00A0DA8
:1004900007240903E401090B121B002A01DC0020D8
:1004A00010BDC900440F0C43C100E018D2058018EC
:1004B00000F054F810BDF0B51FB40646002082B01D
:1004C00005464024019100901BE0019922460F4609
:1004D000304600F029F9049A059B801A994110D3FF
:1004E00010461946224600F016F8361A8F41019739
:1004F000224601200021009F00F00DF838184D41E0
:1005000000902046641E0028DFDC019B00982946ED
:10051000324607B0F0BD10B5202A04DB0146203A70
:100520009140002010BD914020239C1A0346E340D7
:100530001943904010BD10B5202A06DBCB170846A2
:10054000203A1041C1170B4306E00B461341D0403F
:100550002024A21A91400843194610BD002904DA4C
:10056000401C490001D140084000704770B400248D
:10057000050C05D11024000402D1002921D011243A
:10058000050E01D100020834050F01D10001241D20
:10059000850F01D18000A41C002801DB4000641CF1
:1005A000002908D020252E1B0D46F540A14000D083
:1005B00001212943084301061B1B000ADB1D02D54C
:1005C000002070BC7047DB05181880180029F8DA85
:1005D000401C4900F5D170BC40084000704710B580
:1005E000002B08DA0024401C614192185B411A4339
:1005F00001D14008400010BDF0B51FB482B00546DF
:100600000C0003D0084601F037F902E001F034F99C
:1006100020300246009021462846FFF77CFF049BCD
:10062000059A04460F4618431143084314D0184650
:1006300010431BD0009840210A1A1846059900F073
:1006400073F805460E46009A05990498FFF763FF74
:10065000084305D0012004E02046394607B0F0BD2C
:100660000020C11705430E432C43374300990E98D1
:100670006305401A7905E40A00220C43FD0A0A309A
:1006800002D500200146E9E70105101969410C9CDB
:100690000D9D00196941FFF7A2FFDFE74A0009033A
:1006A0000123090B1B0519430A4B10B5520D9A4241
:1006B00002DA0020014610BD064B34339A4203DCB7
:1006C0009A1A00F031F810BD034BD218FFF723FF40
:1006D00010BD0000FF030000CDFBFFFF10B5002997
:1006E00004DB0124E40740428C412146002B04DB5B
:1006F0001C460123DB075242A341994200D190429C
:1007000010BD0000064C0125064E05E0E36807CC4D
:100710002B430C3C98471034B442F7D3FFF7D4FC7A
:10072000582200087822000810B5202A04DB084669
:10073000203AD040002110BD0B46D340D0402024A9
:10074000A21A91400843194610BD000070B501255A
:10075000ED06002406E0A0002858A100064A5050EB
:10076000601CC4B2302CF6DB0120400703498860CE
:1007700001F00CFD002070BD0000002000ED00E045
:1007800010B5024800F0A3FA10BD0000E4000020FC
:1007900038B504460020009020688068C007C00F6C
:1007A000012148404840002827D12068806814492A
:1007B0000840002801D1012000E00020002809D1D4
:1007C000206B102108432063606B012108436063A4
:1007D000012038BD206880680121084321688860B5
:1007E000084909480068FFF783FC009002E0009880
:1007F000401E009000980028F9D10020E9E7000091
:100800001500008040420F00D000002008B52C48A1
:10081000006B012109050843294908630846006B5C
:100820000121090588432649086300BF2448403058
:100830000068012109050843214940310860084644
:100840000068012109050840009000BF00BF1D4855
:100850001D490860084600F0DDF8002801D000F0CE
:10086000D7F8184818490860002048600021164849
:100870008160C1600121016108214161012101768E
:10088000002141768176FF21C231C16100210162E0
:1008900041620121816200F09FFA002801D000F03E
:1008A000B7F80120000309494860012008600648A4
:1008B00000F000F9002801D000F0AAF808BD0000FF
:1008C0000010024000240140E40000201C01002030
:1008D00010B586B0044600BF00BF1448406B01212C
:1008E0000843124948630846406BC007C00F009098
:1008F00000BF00BF00BF60000D49085A01900120F1
:1009000002900020039002200490A100094A505850
:1009100001A900F0D9FB6200054B995AA200054BD2
:100920009858012200F0AAFC06B010BD0010024049
:10093000D0210008C800002000B587B000BF00200B
:100940000190304800680121890308432D4908605F
:1009500008460068012189030840019000BF00BFDC
:1009600029482A490860E1204002486000212748C0
:100970008160C160016181610C21416100F026FD4F
:1009800000BF20484038406B012108431D494039D1
:1009900048630846406BC007C00F019000BF00BF0E
:1009A00000BF0846406B012108431649403948639F
:1009B0000846406BC007C00F019000BF00BF042075
:1009C0000290022003900120049003200590012052
:1009D000069002A90520000700F076FB082002908F
:1009E0000120069002A90520000700F06DFB0122FE
:1009F00000211B2000F0AAFC1B2000F09BFC07B08C
:100A000000BD0000401002400038014028010020D5
:100A100000BFFEE770B504460025002600BF2C206D
:100A2000005D012801D1022070BD01212C2001555B
:100A300000BF2068806808404840484000282CD10A
:100A4000206B0902884302210843206320688068E4
:100A5000890708432168886000F016FC064611E00B
:100A600000F012FC801B02280CD9206B0221884365
:100A700010210843206300BF00212C20015500BF36
:100A80000120D1E720688068C00FC0070028E7D1A7
:100A9000206B02218843206304E0206B202108435F
:100AA0002063012500BF00212C20015500BF2846EE
:100AB000BAE70000F8B504460D4600260020009075
:100AC000A06A002815D0A06A012812D0A06A0228C6
:100AD0000FD0A06A03280CD0A06A042809D0A06A0D
:100AE000052806D0A06A062803D0A06A072800D0EF
:100AF00000BF00BF2C20005D012801D10220F8BDFD
:100B000001212C20015500BF206880680421084085
:100B10008008002879D143496868884259D0206804
:100B2000806A2A7801219140084321688862A06A7E
:100B3000002829D0A06A012826D0A06A022823D044
:100B4000A06A032820D0A06A04281DD0A06A052826
:100B50001AD0A06A062817D0A06A072814D0A8685F
:100B6000216849694907490F88420DD020684069CA
:100B7000C008C0002168486120684069297A490797
:100B8000490F0843216848612868012802D0286875
:100B90000C283FD1244880682968012901D1C90562
:100BA00001E00121890508431F4988602868012860
:100BB00030D11E491E480068FFF79AFA0A214843BF
:100BC000009002E00098401E009000980028F9D1A3
:100BD00020E02068806A2A780121914088432168BA
:100BE00088622868012802D028680C2812D10E4893
:100BF00080682968012902D1C90502E005E00121C8
:100C0000890588430849886004E0206B2021084357
:100C10002063012600BF00212C20015500BF304673
:100C20006DE70000011000000027014040420F0066
:100C3000D0000020F0B585B006463068006C00B2E8
:100C4000184908800020085EFFF7FAFB0746FFF707
:100C500002FC154A154B01910090FFF711FB044669
:100C60000022134BFFF774FB03910290FFF707FC80
:100C70001049086008460068FFF7EDFB04460022B3
:100C80000D4BFFF7EFFA00220C4B01910090FFF79C
:100C9000F7FA02460B460391029009A000F0DCFD32
:100CA00005B0F0BDC0000020A4703D0AD723144059
:100CB0000000B040C400002000000440005071401B
:100CC00020252E3466200D0A00000000704710B564
:100CD00004462068006804210840042804D12068E4
:100CE0004068084004280AD02068006808210840AD
:100CF000082840D120684068084008283BD1206B74
:100D000010210840002803D1206B490108432063CB
:100D10002068C068032189020840002825D1607E30
:100D2000002822D1206800680821084008281CD12A
:100D30002068806804210840800800280DD12068C0
:100D400040680C21884321684860206BFF210131F5
:100D5000884301210843206307E0206B20210843DA
:100D60002063606B0121084360632046FFF762FF48
:100D70000C202168086020680068802108408028D5
:100D80000ED1206840680840802809D1206B4902B4
:100D900008432063204600F0E9F8802021680860BD
:100DA0002068006810210840102814D1206840688D
:100DB000084010280FD1606A012809D1606B022118
:100DC000084360631020216808602046FFF77EFF1B
:100DD00010202168086010BD70B50446002600256B
:100DE000002C01D1012070BD206B002806D160636A
:100DF00000212C200155204600F0BAF8206B10216C
:100E0000084000287ED1002EFCD120688068042193
:100E1000084080080028F5D1206B89018843022111
:100E20000843206320688068C007C00F0121484044
:100E3000484000280FD12068C06818218843A16865
:100E400008432168C86020680069000100096168E2
:100E50000843216808612068C06842490840216849
:100E6000C860207E8003617E49030843616A0129CE
:100E700002D00121090300E000210843E168084392
:100E80002169022901D1042100E000210843054322
:100E9000A07E01280ED1607E002803D1012000042D
:100EA000054307E0206B202108432063606B01218C
:100EB00008436063FF21C231E069884203D0216AA0
:100EC000E069084305432068C06828432168C8607A
:100ED000A06A002814D0A06A012811D0A06A0228B4
:100EE0000ED0A06A03280BD0A06A042808D0A06AFC
:100EF000052805D0A06A062802D0A06A07280FD1CD
:100F0000206800E027E04069C008C000216848610F
:100F100020684069218D4907490F084321684861CD
:100F20002068C06810490840A84208D100206063CA
:100F3000206B0221884301210843206310E0206BCD
:100F400002218843102108432063606B012108437C
:100F50006063012604E0206B102108432063012612
:100F6000304640E71BC2FEFFE7FF3FC3704700006B
:100F700010B586B0044600BF1F48406B01210843EE
:100F80001D4948630846406BC007C00F009000BF72
:100F900000BF00BF18484030006801210905084320
:100FA00015494031086008460068012109050840DC
:100FB000009000BF00BF1048006B08430E49086353
:100FC0000846006B0121090588430B49086302208C
:100FD0000190032002900020039001A90520000742
:100FE00000F072F8002211460C2000F0AFF90C203E
:100FF00000F0A0F906B010BD0010024070B5044624
:10100000002520688068042108408008002840D11D
:1010100000BF2C20005D012801D1022070BD0121FC
:101020002C20015500BF2046FFF7B2FB0546002DDE
:1010300030D1206B18490840FF210131084320635B
:101040000020606300BF00212C20015500BF1C2040
:1010500021680860606908280CD120684068042174
:101060008843216848602068406818210843216847
:10107000486006E0206840681C21084321684860F9
:1010800000BF00BF20688068042108432168886091
:1010900000E002252846C1E7FEF1FFFF70B50446D7
:1010A00000F0F2F806462546681C002802D00548E4
:1010B00000682D1800BF00F0E7F8801BA842FAD3A3
:1010C00070BD0000DC00002070B503460022CBE0BC
:1010D000012696400C683440002C71D04D68022DDA
:1010E00002D04D68122D15D1D508AE001D46203511
:1010F000A8595507EE0E0F25B5400646AE433046BB
:101100005607F60E0D69B5402843D508AD001E46BA
:1011100020367051186856000325B5400646AE4388
:1011200030460D79AD07AD0F5600B5402843186025
:101130004D68012D08D04D68022D05D04D68112D48
:1011400002D04D68122D18D1986856000325B5407D
:101150000646AE4330465600CD68B54028439860F9
:101160005868012595400646AE43304610264D6826
:1011700035402D09954028435860D868560003250E
:10118000B5400646AE43304656008D68B54028430C
:10119000D860012636074D683540B54263D1354DDC
:1011A0009608B600A8599507EE0E0F25B5400646DD
:1011B000AE43304605252D07AB4202D1002506E09F
:1011C00051E02D4DAB4201D1012500E002259607EB
:1011D000F60EB5402843274D9608B600A851254D78
:1011E000203528680546A5432846012636044D6863
:1011F0003540B54202D10546254328461D4D2035D0
:10120000286068680546A5432846012676044D688F
:101210003540B54202D1054625432846154D2035B7
:101220006860144D603D28680546A54328460126A0
:1012300036054D683540B54202D10546254328465E
:101240000C4D603D286068680546A5432846012688
:1012500076054D683540B54202D1054625432846FE
:10126000044D603D6860521C0D68D540002D00D0D3
:101270002EE770BD6018024000040050002A01D023
:10128000816100E08162704701480068704700009A
:10129000D400002003480068034909684018014948
:1012A00008607047D4000020DC00002010B5002446
:1012B000032000F009F8002801D0012401E000F02B
:1012C00033F8204610BD0000F8B504460025134849
:1012D000006800281ED0114801687D20C000FEF77C
:1012E00007FF074639460E480068FEF701FF06462D
:1012F00000F050F800280BD1042C07D20022214620
:10130000401E00F023F80748046004E0012502E0D5
:10131000012500E001252846F8BD0000DC00002082
:10132000D0000020D800002010B50020FFF7D0FA30
:1013300010BD000000BFC206D20E01219140024A3A
:10134000116000BF7047000000E100E070B5044686
:101350000D4616462946204600F000F970BD0000F3
:101360000148006870470000D000002000B5FFF77A
:10137000F7FF06498968072212031140090B89000B
:10138000034A515CC906C90EC84000BD00100240A6
:101390001822000870B504462546681E094988428F
:1013A00001D901200CE0681E074948610321081F8C
:1013B00000F0D4F80020044988610720086100206B
:1013C00070BD0000FFFFFF0000E000E010B5044624
:1013D000002C01D1012010BDA069002800D000E040
:1013E00000BF3D20005D002805D100213C200155B3
:1013F000204600F030F824213D2001552068C068C7
:101400000121490388432168C860204600F01AF989
:10141000206A002802D0204600F0F8F82068006911
:101420000121C902884321680861206840690821B8
:101430008843216848612068C06801214903084346
:101440002168C8600020206420213D2001553E20F5
:1014500001550020BFE77047FFB583B004460D4635
:101460001746002001903D20005D202871D1002DFD
:1014700001D0002F02D1012007B0F0BD01210903E6
:10148000A068884208D12069002805D1E807C00F6C
:10149000002801D00120EFE700BF3C20005D0128BB
:1014A00001D10220E8E701213C20015500BF0020C6
:1014B000206421213D200155FFF7E6FE019027869B
:1014C000678601210903A068884205D120690028A8
:1014D00002D10026029502E02E46002002901EE076
:1014E00006980090002280212046019B00F07CF9A4
:1014F000002801D00320BFE7002E09D10298008800
:10150000C005C00D216848600298801C029003E06D
:10151000307821684860761C608E401E6086608E40
:101520000028DDD106980090002240212046019B32
:1015300000F05AF9002801D003209DE720213D202A
:10154000015500BF00213C20015500BF002093E75A
:10155000FFE7022090E700BFFEE7704710B50028C4
:1015600019DA1A4A03071B0F083B9B089B00D25845
:101570008307DC0EFF23A3409A438B071B0E8407CF
:10158000E40EA3401A43114B0407240F083CA4089F
:10159000A4001A5118E00E4A03231B02D218830834
:1015A0009B00D2588307DC0EFF23A3409A438B078E
:1015B0001B0E8407E40EA3401A43054B03242402A8
:1015C0001B198408A4001A5110BD00001CED00E096
:1015D00000E100E07047704710B5FFF75BFE10BDFB
:1015E00007484068000C00040121490340180549E0
:1015F0004968084302494860C80303498860704746
:1016000000100240000FFF1F00ED00E04022016AC1
:101610001140002915D00168496992019143426A3D
:1016200011430268516101221203416A914208D1BB
:1016300001684969032252039143826A1143026897
:1016400051617047FEB504462068006901214903D5
:101650008843E1680843216808612169A06808435C
:101660006169084302902068C0685E490840029999
:1016700008432168C860E069029020684069012140
:10168000C90288430299084321684861206840697B
:10169000032109028843A1690843216848610121A7
:1016A000C902E06988424ED1FFF760FE05466268D4
:1016B000510019226A431046FEF71AFD06466421BE
:1016C000FEF716FD07016268510019226A431046B1
:1016D000FEF70EFD06466268510019226A43104665
:1016E000FEF706FD64210090FEF702FD64214843E9
:1016F000301AC00032300190FEF7FAFCF8210840A1
:1017000040003F186268510019226A431046FEF7F4
:10171000EFFC06466268510019226A431046FEF744
:10172000E7FC64210090FEF7E3FC64214843301A93
:10173000C00032300190FEF7DBFC4007400F381844
:10174000216888604CE0FFF711FE05466268910051
:1017500019226A431046FEF7CBFC06466421FEF7C9
:10176000C7FC07016268910019226A431046FEF720
:10177000BFFC06466268910019226A431046FEF7D4
:10178000B7FC64210090FEF7B3FC64214843301A93
:10179000000132300190FEF7ABFCF02108403F1809
:1017A0006268910019226A431046FEF7A1FC0646C2
:1017B0006268910019226A431046FEF799FC642181
:1017C0000090FEF795FC64214843301A0001323046
:1017D0000190FEF78DFC0007000F38182168886023
:1017E000FEBD0000F3E9FFFFFFB581B004460D46E2
:1017F00017460A9E24E0701C002821D0002E05D038
:10180000FFF742FD0499401AB04219D92068C06818
:10181000FF21A13188432168C860206840694008E1
:1018200040002168486120213D2001553E2001559E
:1018300000BF00213C20015500BF032005B0F0BDD2
:10184000206800682840A84201D1012000E0002063
:10185000B842D0D00020F1E70FB410B503A9044B73
:10186000044A029800F0E8F810BC08BC04B018471D
:1018700071210008E00000202021020C01D010217D
:101880001046020A01D010460839020901D010465C
:10189000091F820801D01046891E420801D0881E07
:1018A0007047081A704702E008C8121F08C1002AD2
:1018B000FAD170477047002001E001C1121F002AD1
:1018C000FBD17047F0B51FB486B00998089A030D94
:1018D0000021024314D05148514A181850430514AE
:1018E0001198012810981AD0281A401C00264D4F34
:1018F0004D49009601910490002812DA444211E00B
:101900001198012449A3012801D11098C1430698D8
:10191000119A84600360C26041600BB0F0BD404228
:10192000E4E70446210500203F4A001C5141039191
:10193000029012E0E00707D032463B46019900983A
:10194000FEF79EFC0191009032463B461046194638
:10195000FEF796FC06460F466410002CEAD1049868
:10196000039B0028029A0999089806DAFEF788FC7A
:10197000019B009AFEF784FC05E0FEF7E9FC019B61
:10198000009AFEF7E5FC04460E460022284BFEF7BF
:10199000A5FE03D80020C043014607E00022254BE6
:1019A00020463146FEF7BAFBFEF778FE102409E028
:1019B000002C0ADB0A220023FEF77DFD079B303254
:1019C0001A55641E02460A43F2D11122641C079B79
:1019D000121B1C19119B012B03D0012308430ED1AC
:1019E0000AE0084304D0112010900020119077E7FE
:1019F0001098151A6D1E0BE01098824202DD00232C
:101A00006D1C03E0824201DA00236D1E002BEED034
:101A1000069811998260C16030C07EE701FCFFFF2B
:101A2000104D0000000014400000F03F30000000A6
:101A30000000F0430000E03FFFB597B006460025E8
:101A400018E2252877D100242746FD49049400E0B8
:101A50000443761C32780120203A90400842F7D1A6
:101A600030782A280ED002223078014630390929F0
:101A700016D804990A235943303940181443761C68
:101A80000490F1E7189802C804911890002904DA2C
:101A90000120400304434842049002200443761C82
:101AA00030782E2814D1042004437078761C2A281C
:101AB00009D11898761C80C8189009E00A214F4374
:101AC000303FC719761C3078014630390929F5D9DD
:101AD00030786C2810D006DC4C281AD068280ED03C
:101AE0006A2817D104E0742813D07A2812D110E0A4
:101AF0000120400504430CE00121090501E0032118
:101B000009050C437178814203D101200005241896
:101B1000761C761C3078119066280BD013DC582880
:101B20007DD009DC00287BD04528F6D04628F4D0AB
:101B300047281AD1A5E118E0632835D0642870D071
:101B4000652812D19DE170286CD008DC6728F1D09F
:101B500069287BD06E280DD06F2806D1BAE0732893
:101B60002ED0752871D0782859D01A9A1999904793
:101B70006D1C7EE16002400F022809D003280DD0C1
:101B80000428189801680DD00D60001D189070E1B0
:101B90001898EA1701680D604A60F6E7189801681E
:101BA0000D80F2E70D70F0E718986A46017811721F
:101BB000001D18900020507202A80090012005E03E
:101BC000189802C8189000200091C04361070DD5F5
:101BD000002101E00199491C0191B94212DA8142C8
:101BE000F8DB009A515C0029F4D10BE0002101E000
:101BF0000199491C01918142FADB019A0099895CA3
:101C00000029F5D1019904981A9B471A21463846B4
:101C1000199A00F097FA0199401945180BE04FE026
:101C20002CE113E04EE0009800990078491C0091E7
:101C30001A9A199990470198401E0190401CF2D1C0
:101C4000214638461A9B199A10E137E00A200021F4
:101C5000009001916002410F022907D0189A01CA31
:101C60001892C2179446032908D00AE01898C01D9C
:101C7000C108C90005C91891944607E000B2C2170F
:101C80009446042902D140B2C1178C460022614615
:101C9000944506DA0A460021404291418C462D21A6
:101CA00002E0210504D52B216A461173012103E0CE
:101CB000E10701D02021F7E7029155E00A200AE070
:101CC000102008E01020009000210420044301911E
:101CD000082703E008200021019100906002410FD5
:101CE000022907D0189A01CA1892002294460329A3
:101CF00008D008E01898C01DC108C90005C918918E
:101D0000944603E080B2042900D1C0B200210291C0
:101D1000210729D51199702906D0009A1021019B1D
:101D20004A401A4305D00EE040216A461173012152
:101D300008E06146014306D030216A4611731199CB
:101D4000517302210291009A0821019B4A401A43D3
:101D50000AD16146014301D1610705D530216A46A8
:101D6000117301217F1E02911199582904D035A1C8
:101D70000E910DA90D910DE037A1F9E76146019B88
:101D8000009AFEF798FB0E9B8C469B5C0D9A521EA8
:101D90000D92137061460143F0D10D9805A9081A00
:101DA00020300190600703D501200004844300E047
:101DB00001270198874201DD381A00E000200199CF
:101DC00000904118029809180498401A0490E00302
:101DD00006D421461A9B199A049800F0B3F94519C4
:101DE000002706E003A81A9AC05D199990476D1C58
:101DF0007F1C02988742F5DBE0030CD521461A9B35
:101E0000199A049800F09EF9451904E01A9A3020B6
:101E1000199990476D1C0099481E00900029F5DC27
:101E200008E00D980D990078491C0D911A9A19999E
:101E300090476D1C0199481E01900029F1DC63E177
:101E40000928010030313233343536373839616290
:101E50006364656600000000303132333435363754
:101E600038394142434445460000000000F05AF929
:101E70004519761C3078002800D0E2E528461BB0D2
:101E8000F0BD600700D406271898C01DC108C9001E
:101E900048680A680831C30FDB071891190001D0A0
:101EA0009CA108E0210501D59BA104E0E10701D038
:101EB0009AA100E09AA1430011985B08109165284F
:101EC0000CD006DC452809D046281DD0472841D132
:101ED00041E0662818D067283CD13CE00021112F52
:101EE00001DB112000E0781C0191009008A911A8E5
:101EF000FFF7E8FC139905910021119A15927F1CB8
:101F000012980197009150E00120C0070390012032
:101F1000019008A9009711A8FFF7D4FC139A14990F
:101F200005920022119B009212981593059A019236
:101F3000002901D0104602E0791C40180190381A9F
:101F400001D5019804E04042401E0090781C0190A9
:101F5000C01B029043E0012F00DA01270021112F5E
:101F600001DD112000E038460191009008A911A878
:101F7000FFF7A8FC13990591119A00211298159268
:101F80000091019721070CD40599B94201DB019911
:101F900000E00191012904DD159A491E515C3029A8
:101FA00006D0B84201DA011D05DA0121029115E0DF
:101FB0000199491EEDE7002805DC009941180091C0
:101FC0000199091A03E0019A411C914200DD019137
:101FD0000099401A401C02900120C007039020077E
:101FE00006D402990198814202DB0020C04302908E
:101FF00000206946C87707AF012103980337C90756
:10200000884224D0022011902B201290039800289F
:102010000CDA404203902D20129007E00A21039829
:10202000FEF766F830317F1E039039701199481E13
:1020300011900029F2DC03980028EFD1791E129844
:1020400008703078202108404530BF1E387006A83F
:10205000C01BC01D039010980078002800D00120FC
:10206000019941180298C017091803980918049893
:10207000401A401E0490E00306D421461A9B199A88
:10208000049800F05FF8451910980078002803D0F4
:102090001A9A199990476D1CE00324D521461A9B82
:1020A000199A049800F04EF845191CE00098002891
:1020B00007DB00990598884203DD1598405C199963
:1020C00001E0199930201A9A904700986D1C401C25
:1020D00000900298401E0290002804D11A9A2E20E7
:1020E000199990476D1C0199481E01900029DDDC6B
:1020F00005E038781A9A7F1C199990476D1C03994E
:10210000481E03900029F4DC21461A9B199A049872
:10211000ACE600002D0000002B00000020000000B5
:1021200000000000F8B5044600251E461746880446
:1021300004D405E039462020B0476D1C641EF9D553
:102140002846F8BDFFB50446002581B01E46C803E9
:1021500001D5302700E02027880404D505E0384663
:102160000399B0476D1C641EF9D5284605B0F0BD33
:1021700013B50C467D23DB00012269460248FFF7B8
:102180006BF900981CBD000028010020FFF78EF8B5
:10219000FEF73CFBFEF7D0FB0020FEF799FBFEF7B5
:1021A000CBFB07A0FFF758FB09E00A20FEF776FFFC
:1021B0000648FEF723FF002801D0FEF729FCF4E7CC
:1021C0007072696E7420746573740000E4000020FE
:1021D00020000400060000000000000000000000D5
:1021E00000000000000000000000000000000000EF
:1021F00000000000000000000100000002000000DC
:1022000003000000040000000600000007000000BA
:1022100008000000090000000000000000000000AD
:1022200000000000000000000100000002000000AB
:10223000030000000400000000093D0000127A00C5
:102240000024F4004086510100366E0100093D0073
:1022500000093D0000093D00782200080000002030
:10226000E4000000A61800085C230008E400002039
:102270008C040000B61800080000000000000000F8
:10228000000000000000000000000000000000004E
:10229000000000000000000000000000000000003E
:1022A000000000000000000000000000000000002E
:1022B000000000000000000000000000000000001E
:1022C000000000000000000000000000000000000E
:1022D00000000000000000000000000000000000FE
:1022E00000000000000000000000000000000000EE
:1022F00000000000000000000000000000000000DE
:1023000000000000000000000000000000000000CD
:1023100000000000000000000000000000000000BD
:1023200000000000000000000000000000000000AD
:10233000000000000000000000000000000000009D
:10234000000000500004005000127A00000000005D
:0C2350000400000001000000000000007C
:04000005080000C12E
:00000001FF
