:020000040800F2
:1000000068060020D5000008DD1F0008A71F0008B3
:1000100000000000000000000000000000000000E0
:100020000000000000000000000000004521000862
:100030000000000000000000DF1F00084921000848
:10004000000000000000000000000000E7000008C1
:10005000E7000008E7000008E7000008E7000008E4
:100060000000000000000000000000000000000090
:10007000C5090008E7000008E700000800000000CC
:1000800000000000E7000008000000000000000081
:1000900000000000E700000800000000E700000882
:1000A00000000000E700000800000000E700000872
:1000B0000000000000000000000000000000000040
:1000C0000348854600F028FC0048004795090008D1
:1000D000680600200448804704480047FEE7FEE722
:1000E000FEE7FEE7FEE7FEE75D210008C10000082D
:1000F00030B50B46014600202022012409E00D46C0
:10010000D5409D4205D31D469540491B2546954047
:1001100040191546521E002DF1DC30BD70B500248B
:100120002546002801DA01244042002901DA012590
:100130004942FFF7DDFFAC4200D04042002C00D026
:10014000494270BD024670B54A40D30FDB074000FC
:100150002DD04A002AD0010E140E000212020919F5
:10016000400A520A8418E50104465443000A120A60
:100170002E045043A4194219200CC543AA18120C8E
:100180000125AD03521C521912047F39240400D0FA
:10019000521C104301D44000491EC2B20C06C009D3
:1001A0002018401C4008802A02D003E0002070BDC7
:1001B00040084000002900DA0020184370BD70B5E7
:1001C00002464A40D50F40004A00ED074008520859
:1001D000002814D0002A12D0C40DD30D41020120F2
:1001E000C0055202490A520AE41A091812187D344D
:1001F000914201D3641C00E04900002C01DA002088
:1002000070BD0023914201D3891A0343400849007D
:100210000028F7D100290AD0914202D10121C90753
:1002200005E0914201D2012101E00121C943E0052D
:10023000C018401900F040FA70BD0000F0B5074644
:100240000846584087B0C00F049048000E46590039
:1002500040084908BC1A884105D2384631461E4636
:1002600017460B4602465800400810434CD0300D4C
:10027000039040055900400D490D0590401A029029
:10028000402872DA18030121000B09050843019088
:1002900004980092002805D001995242002088411C
:1002A00000920190029840210A1A0199009800F0EA
:1002B000CFF905460C466B4607CB00F0EAF9C019AA
:1002C0007141039A0E0D0023D71756401A467A4003
:1002D000164344D0049A002A2DD0029A012A039A88
:1002E00015DC1205C01A914101263605001C71412A
:1002F000D20F059ED2070093019202962A4623460A
:1003000000F028FA07B0F0BD38463146FAE7160586
:10031000224A0F46B218C01AB74101210905001C34
:100320004F4100187F41114618187941E20F1043E0
:100330006D19644113E0E2076D0815436408C207B4
:100340001443039A01261205C01A91413605001C78
:100350007141CE07400830434908C01851412A4630
:10036000234600F0EAF9CDE7FFE7049801224000B8
:10037000C117121A00238B4104983146C417381A4A
:10038000A141EEE730B40124E407634030BC55E7F7
:1003900030B40124E407614030BC4FE70000E0FFC7
:1003A000F0B51FB488B00B9909980024484009990A
:1003B000C00F490049080991C0070B9900904900F6
:1003C00049080B9109990898A64608431CD00B9937
:1003D0000A98084318D0099801244000420D4800AB
:1003E000410D099824050003000B204309900B9848
:1003F0000003000B20430B9050181C4940180022AA
:1004000001901446104605E0002001460DB0F0BDF5
:10041000032801DA034600E003239C46C11A0AAE12
:100420000AE05F0008ADED5B4F00F75B7D430027FE
:10043000AA187C41491C5B1E6145F2DD410004ABFA
:100440005A522104120C0A43240C401C0828DFDBFA
:10045000019802900099704601910090059B049AC2
:100460000799069800F076F9D0E700000DFCFFFF31
:10047000F0B50C465C4085B0E40FE40703944C00F3
:100480000026640859009446490802460296224311
:1004900021D062460A431ED06200570D4A000E0367
:1004A0002303550D012402462C492405781B1B0B00
:1004B000360B401823432643614600901C46501AD1
:1004C000B44103D30098401C009002E092180098B9
:1004D0005B41002803DA0020014605B0F0BD002092
:1004E000012109050746864611E064461D46141B96
:1004F000B54106D36546521BB341744607430C43CE
:10050000A646CD0740084908284392185B41054696
:100510000D43EAD11046184313D0604619465040A7
:100520007140084306D06046101AB34106D201223A
:10053000002306E000220123DB0702E00122D24370
:100540005310009874460105381C6141029C039DBC
:100550000019694100F0F1F8BFE70000FD03000059
:1005600010B500229623114600F0AEF810BD000031
:100570000EB505490291002100910A460B460191F2
:1005800000F0E8F803B000BD330400004100400271
:100590000122400AD205090E80187F2901DA0020C5
:1005A0007047962903DC9622511AC8407047963945
:1005B000884070474A0009030123090B1B051943B2
:1005C000094B10B5520D9A4201DA002010BD064BBE
:1005D00034339A4203DC9A1A00F04AF810BD0349FA
:1005E0005118884010BD0000FF030000CDFBFFFF45
:1005F000C20FD207400040080BD0C10D0723DB011A
:10060000C91840020905400A1143C20840071143B6
:100610007047002001467047CB0FDB07490010B53B
:10062000490802460A4307D00A0D07240903E401DA
:10063000090B121B002A01DC002010BDC900440F69
:100640000C43C100E018D205801800F035F810BD49
:1006500010B5202A04DB0146203A9140002010BD4D
:10066000914020239C1A0346E3401943904010BD5B
:1006700010B5202A04DB0846203AD040002110BDE6
:100680000B46D340D0402024A21A9140084319467B
:1006900010BD10B5202A06DBCB170846203A1041C2
:1006A000C1170B4306E00B461341D0402024A21A89
:1006B00091400843194610BD002904DA401C490046
:1006C00001D140084000704770B40024050C05D1EA
:1006D0001024000402D1002921D01124050E01D1DB
:1006E00000020834050F01D10001241D850F01D13E
:1006F0008000A41C002801DB4000641C002908D0F5
:1007000020252E1B0D46F540A14000D00121294394
:10071000084301061B1B000ADB1D02D5002070BC2C
:100720007047DB05181880180029F8DA401C4900CA
:10073000F5D170BC40084000704710B5002B08DAB6
:100740000024401C614192185B411A4301D14008CA
:10075000400010BDF0B51FB482B005460C0003D0B8
:10076000084601F06FFD02E001F06CFD203002460A
:10077000009021462846FFF76BFF049B059A04462C
:100780000F4618431143084314D0184610431BD09A
:10079000009840210A1A18460599FFF769FF054697
:1007A0000E46009A05990498FFF752FF084305D0BA
:1007B000012004E02046394607B0F0BD0020C117F3
:1007C00005430E432C43374300990E986305401AA6
:1007D0007905E40A00220C43FD0A0A3002D5002004
:1007E0000146E9E70105101969410C9C0D9D0019AE
:1007F0006941FFF7A2FFDFE770B54B005B080343D9
:100800000BD04B005C0D002633466542B341D41734
:10081000AD1AA34102DB0020014670BD120530185D
:10082000514170BDFEB500231A461B1A8A4103DBF5
:100830000020014603B0F0BD4A000D0301212D0B3D
:100840000905520D0D43D10702D100186D41521E0A
:100850005110FF31FF310131002704463E46384632
:10086000009701910246012100200905FFF700FFD2
:10087000C3197141F818324684468E464A41614692
:100880002846611A904104D36046241A9541764661
:100890001F46241900986D41401C00903428E1DD6A
:1008A000F91930467041091BA84103D20022D243F6
:1008B000134601E00022134601980105381C7141DE
:1008C000FFF73BFFB6E700000EB5C217C10F50405F
:1008D000CA0740180021054B0293019200910A4675
:1008E0000B46FFF737FF03B000BD000033040000E4
:1008F00010B5002904DB0124E40740428C41214665
:10090000002B04DB1C460123DB075242A341994222
:1009100000D1904210BD0000064C0125064E05E0B6
:10092000E36807CC2B430C3C98471034B442F7D310
:10093000FFF7CAFB283400084834000870B58C184B
:100940000578401C6B075B0F01D10378401C2A110E
:1009500006D10278401C03E006780E70401C491C4A
:100960005B1EF9D12B0705D40023521E0DD40B704A
:10097000491CFAE70378401CCB1A921C03E01D784F
:100980000D70491C5B1C521EF9D5A142D8D3002022
:1009900070BD0000012210B5D206084B0020810076
:1009A000401C5458C0B25C503028F8D30120044990
:1009B0004007886001F0F2FD002010BD000000201B
:1009C00000ED00E010B5024800F0C3FC10BD0000CF
:1009D0006801002070B5044600688168490723D586
:1009E000816810254907002905DA8168C90702D006
:1009F00081682943816000F0F5FF06462068806821
:100A0000400711D500F0EEFF801B022808D9206BAB
:100A100028432063606B012108436063084670BD72
:100A2000206880684007EDD4002070BDF8B504460A
:100A300000688168C943C90724D181680522114033
:100A400010250126012911D18168B14381602168F7
:100A50000220086000F0C6FF074620688068C007D3
:100A600010D000F0BFFFC01B022807D9206B28431D
:100A70002063606B304360630120F8BD20688068AC
:100A8000C007EED10020F8BD08B500210091016833
:100A90008A68D243D2071CD08A680F4B1A400123C0
:100AA000002A08D0016B102211430163416B1943E6
:100AB0004163012008BD88681843886008480749D9
:100AC0000068FFF715FB0090002802D0401E009040
:100AD000FCD1002008BD00001500008040420F003E
:100AE000C400002010B50D4C01221146204600F034
:100AF00072FF032002F0DAFB01220221204600F0FF
:100B00006AFF0A2002F0D2FB00220121204600F0F9
:100B100062FF0A2002F0CAFB10BD00000014005062
:100B200010B50D4C00220121204600F054FF032097
:100B300002F0BCFB01220221204600F04CFF0A20FB
:100B400002F0B4FB01221146204600F044FF0A20C7
:100B500002F0ACFB10BD00000014005070B5264E32
:100B600005460024472000BF401EFCD2002202217F
:100B7000304600F030FFE80705D00122114630462C
:100B800000F029FF04E000220121304600F023FF9D
:100B9000472100BF491EFCD201220221304600F04D
:100BA0001AFF641C6D08E4B2082CDBD3002202217A
:100BB000304600F010FF032002F078FB00220121F4
:100BC000304600F008FF032002F070FB01220221F2
:100BD000304600F000FF032002F068FB00220221F3
:100BE000304600F0F8FE032002F060FB01221146BF
:100BF000304600F0F0FE70BD0014005010B51D48E6
:100C000086B0426B20210A434263406B1A4C084075
:100C10000590012001900020029002200390032003
:100C200000906946204600F041FE01221146204610
:100C300000F0D1FE01220221204600F0CCFE00216E
:100C4000C52000F01BF80021C32000F017F8002198
:100C5000C42000F013F80021C22000F00FF800219A
:100C6000C12000F00BF80021C02000F007F806B00A
:100C700010BD0000001002400014005070B50C467A
:100C80000546FFF72FFF4420FFF768FFFFF748FFF7
:100C9000FFF728FF2846FFF761FF2046FFF75EFFBA
:100CA000FFF73EFFFFF71EFF8C20FFF757FFFFF710
:100CB00037FF70BD38B526480268012109050A438F
:100CC000026002680A400092224A136B0B431363CE
:100CD000136B8B43136302680A43026000681F4C66
:100CE000084000901C4D2046256000F01BFA0028AB
:100CF00001D000F0F9F900206060A0602560E0609C
:100D0000012504212561616125766076A0760902BE
:100D1000E061216260620320A062104800F07EFB67
:100D2000002801D000F0E0F90E480D49056041604F
:100D30000146383800F03AFA002801D000F0D4F922
:100D4000064800F04BFC002801D000F0CDF938BD7A
:100D500040100240001002400024014068010020C1
:100D600001100000A001002038B515480268C11428
:100D70000A430260006800240840009012481149AC
:100D800001607721C16004618460446163218461F2
:100D9000416001F0E1F8002801D000F0A5F90B480E
:100DA0002021446001600146074801F0B1F806487F
:100DB00001F0EAF8002801D000F096F938BD0000F3
:100DC00040100240002C0140AC010020C80000206F
:100DD00070B5204B1D4C1E4D19881A790020265CD9
:100DE000B1420BD926187678B14207D8161A012ECF
:100DF00002D12E5CB14201D2187103E0401CC0B296
:100E00000B28ECD3E07A814201D90B201871124AE9
:100E10001879917A884218D0002302240A290DD12A
:100E200009280BD10D4D0421A962918B491C89B26F
:100E30009183642909D39072D47093839072D47093
:100E4000D3711370012001F0C1FA70BD4001002080
:100E50004C01002044020020E40000200014005057
:100E6000F8B59E499E4EC87A0A465579044604282C
:100E700076D0002708464783012C01D0022C0ED1E2
:100E80009649088B401C80B208830521FFF730F992
:100E9000012904D19149002D1ED0002048718F4DA9
:100EA000687901281AD00021C520FFF7E7FE042148
:100EB000C320FFF7E3FE0021C420FFF7DFFE00217F
:100EC000C220FFF7DBFE0021C120FFF7D7FE002183
:100ED000C020FFF7D3FEF8BD0120DFE78148012CD9
:100EE000C08833D0022C31D06421FFF701F9315C86
:100EF000C520FFF7C3FE7B4C0A21E088FFF7F8F816
:100F00000A21FFF7F5F8715C04200143C320FFF7C5
:100F1000B5FE28790128E08823D00A21FFF7E8F8F8
:100F2000715CC420FFF7AAFEE87A002823D0411E96
:100F300002296BD20021C220FFF7A0FE20884B2897
:100F400056D25821C120FFF799FE59E06421FFF7DE
:100F5000CFF8315C04200143C520FFF78FFECAE7BC
:100F60005DE00A21FFF7C4F8715C04200143C4204E
:100F7000FFF784FED8E7A87901280BD0A88901F0F3
:100F800091FA0028A7D10120A87120884C38CC28DC
:100F900043D3F8BD60880246C7382D280CD2B178FB
:100FA000C220FFF76BFEB178C120FFF767FE3178F2
:100FB000C020FFF763FEF8BD64211046FFF798F8E4
:100FC000315CC220FFF75AFE60880A21FFF790F8D3
:100FD0000A21FFF78DF8715CC120FFF74FFE608892
:100FE0000A21FFF785F8715CC020FFF747FEF8BDC6
:100FF000FF211931884203D97321C120FFF73EFE3A
:101000000021C020FFF73AFEEF81F8BD0328FCD194
:10101000072001F047FA0028F7D1EF72F8BD488B9E
:101020000C46401C80B248830521FFF761F8012976
:1010300003D1002D11D000206071607900280ED0FE
:101040000021C520FFF71AFE0421C320FFF716FE7A
:101050000021C420FFF712FE20E00120ECE7214D23
:1010600064212888FFF744F8315C04273943C52000
:10107000FFF704FE28880A21FFF73AF80A21FFF754
:1010800037F8715CC3203943FFF7F8FD28880A213F
:10109000FFF72EF8715CC420FFF7F0FDF121C220AC
:1010A000FFF7ECFD6421608BFFF722F80A21FFF7C0
:1010B0001FF8715CC120FFF7E1FD0A21608BFFF78B
:1010C00017F80A21FFF714F8715CC020FFF7D6FD6E
:1010D000608BC828A2D900206083F8BDE4000020FE
:1010E000D000002044020020FEE7000070B5044656
:1010F00000F078FC0519094C2069C043C00309D4ED
:1011000000F070FCA84201D3032070BD2069C043E9
:10111000C003F5D502482061002070BD00200240C8
:1011200011800000F8B5054604462035287B0027CD
:10113000012827D00120287320688168C943C90786
:101140002BD0216BFF2201329143022211432163F4
:10115000816892071143816000F044FC06462068D4
:101160008068002814DA00F03DFC801B02280BD9AF
:10117000206B02218843102108432063002028733C
:101180000120F8BD0220F8BD206880680028EADB55
:10119000216B02208143216304E0206B202108435E
:1011A00020630127002028733846F8BDF8B50025D4
:1011B000044620340095227B012A37D0012626736D
:1011C000026893685B0763D4364F4B68BB424BD0D1
:1011D000936A0F78BE4033439362826A002A1FD01D
:1011E000012A1DD0022A1BD0032A19D0042A17D0A5
:1011F000052A15D0062A13D0072A11D002688B6859
:1012000056697607760FB3420AD05369DB08DB00D4
:101210005361006842690B7A5B075B0F1A434261B6
:101220000868012804D00C2802D036E00220F8BD5E
:101230001D4B9A68012807D00120800502439A605F
:101240000868012803D028E00120C005F6E7184807
:1012500016490068FEF74CFF0A21484300901CD055
:10126000401E0090FCD118E008788640966208681D
:10127000012801D00C2810D10B498A68012804D01C
:101280000120800582438A6007E00120C005F9E75C
:10129000016B2022114301630125002020732846A1
:1012A000F8BD0000011000000027014040420F007F
:1012B000C4000020F8B50368186C9F6A80B2214D05
:1012C0000024E9791E4E4A00491CC9B2022F10D0F1
:1012D0009F6A012F28D09B6A402B09D1AB78002B45
:1012E00006D1B052E9710A2902D3EC710120A8702D
:1012F000F8BD154BC318092B02D2EB78022B0DD089
:101300002B78002BF4D1EB78002BF1D1B052E9719E
:101310003C29EDD3EC7101202870F8BD0B48007911
:1013200001F0A6FEEC70F8BD6B78002BFBD1B0523B
:10133000E9713C29F7D3EC7101206870F8BD000019
:10134000CC010020E40000200CF8FFFF4402002044
:10135000704770B5044600680168490702D54168C6
:10136000490705D40168090730D5416809072DD51B
:10137000216BC90604D4216B01225202114321635F
:10138000C1680C250905890F00291AD1617E002941
:1013900017D10168090714D581680122490700297E
:1013A00008DB4168A9434160206B11028843104368
:1013B000206306E0206B202108432063606B10430C
:1013C00060632046FFF776FF2068056020680168AB
:1013D00009060DD5406800060AD5206B01210904D5
:1013E00008432063204600F0C5F82168802008608B
:1013F00020680168C90610D54168C9060DD5616A23
:101400001025012907D1616B022211436163056038
:101410002046FFF79DFF2068056070BDF8B50025E8
:101420000446002803D0206B002802D008E00120E9
:10143000F8BD002060632C210855204600F09CF880
:10144000206B1022C00600287EDB206881684907D7
:101450007AD4216B130199430223194321638168D4
:10146000C943C9070CD0C16818239943A36819431D
:10147000C1602068016963680901090919430161B4
:101480002068C168394B1940C160207EE168800343
:101490000143607E636A4603012B02D001231B03D4
:1014A00000E000231E4323693143022B06D00023B2
:1014B0001943A67E0123012E02D00AE00423F7E798
:1014C000002824D0206B202630432063606B184313
:1014D0006063E0690646FF3EC23E02D0266A3043A2
:1014E00001432068C6680E43C660A06A002812D077
:1014F000012810D002280ED003280CD004280AD0CE
:10150000052808D0062806D0072804D00FE00120BF
:1015100000040143DDE720684669F608F6004661ED
:1015200020684669278D7F077F0F3E43466120680C
:10153000C0680F4E3040884209D100206063206BA4
:1015400080088000401C00E00CE0206308E0206B75
:101550000221884310432063606B184360630125B8
:101560002846F8BD206B10432063F8E71BC2FEFF3E
:10157000E7FF3FC37047000000B5164887B0416BD6
:10158000012211434163416B1140134A05911368D5
:10159000012109050B43136012680A400592026B92
:1015A0000A430263026B8A430263432000900320D4
:1015B00001900020029005206946000700F076F9AE
:1015C000002211460C2000F059FA0C2000F04CFAD1
:1015D00007B000BD001002404010024070B5044644
:1015E00000688068400731D425462035287B0128D3
:1015F00007D0012028732046FFF746FA010002D0E9
:1016000025E0022070BD206B124A1040FF220132FB
:101610001043206300206063287320681C2303604C
:10162000606904220828206807D045681D4345608A
:10163000206883681343836009E0436893434360F1
:101640002068436818252B434360F1E702210846D0
:1016500070BD0000FEF1FFFF70B505460446203561
:10166000287B012807D001262E732046FFF7B2F908
:10167000002802D011E0022070BD206841681C22C1
:10168000914341602046FFF7D1F9002805D1216B35
:10169000FF2201329143314321630021297370BD40
:1016A000054901204A69C3071A434A61496900296B
:1016B00000DA00207047000000200240F8B5554FC6
:1016C000397801297CD00121397053494968534E3A
:1016D00009043468490F8A00514989580A68D3B20D
:1016E0009C4229D17468D501ED0DAC4224D13469F6
:1016F0001204120E94421FD1B4684A68D5B2AC42AB
:101700001AD1F4685201520D944215D172698C6855
:10171000E403E40BA2420FD1B269CC68E403E40B0A
:10172000A24209D1F4690A6995B2AC4204D1346A83
:101730009200920C94421DD033600A68D201D20DFF
:1017400072600A881204120E32610A79B2604A6825
:101750005201520DF2608A68D203D20B7261CA68DC
:10176000D203D20BB2610A8A92B2F261096989008E
:10177000890C31620178CA072A4903D08288D24392
:1017800092B2CA620278920704D5C36882681B02CB
:101790001A434A6203681A07940FFF22032C11D0E0
:1017A0005C0718D50B6ADF24240223400469086A09
:1017B0001D461543A84318432043086217E0FFE77E
:1017C0000220F8BD056984694369086A1343984398
:1017D00020432843F1E71B0709D50B6A4469806958
:1017E0000D6ADBB21443A54305431D430D624869EE
:1017F00001235B04184348614869DB0118434861D1
:10180000094802607D20C000FFF770FC002139709C
:10181000F8BD0000500200200010024000210240EC
:1018200064330008002002408020024003484169E0
:101830000122D2061143416101207047002002407D
:10184000054901204A6983071A434A6149694900E9
:1018500000D500207047000000200240064901200A
:101860004A69520007D5054ACA60054ACA604969F3
:10187000490000D400207047002002403B2A19088C
:101880007F6E5D4C064900204A69002A07DA054A46
:101890008A60054A8A604969002900DA0120704798
:1018A0000020024023016745AB89EFCD0B68002281
:1018B000002B7DD0F0B4012494400B68A446234053
:1018C00074D04C68022C01D0122C0CD1D408A40086
:1018D0002618356A5407E40E0F27A740BD430F6949
:1018E000A7402F433762066855000324AC400F79A8
:1018F000A643BF07BF0FAF40374307604E68012EB6
:1019000005D0022E03D0112E01D0122E0ED18768E1
:10191000CE68A743AE403E43866047686646B743FD
:101920000E79F606F60F96403E434660C668A6431B
:101930008C68AC403443C4604C68E40036D59508EC
:101940001F4CAD002F193D6E9407E40E0F26A640E4
:10195000B54305263607B04201D1002605E0194EF1
:10196000B04201D1012600E00226A6402E43144DCC
:101970003E66154E34684F689C43FF0300D51C43F8
:10198000346074684F689C43BF0300D51C43746087
:101990002C684E689C43F60200D51C432C606C6892
:1019A0004E689C43B60200D51C436C60521C00E09C
:1019B00005E00B68D34000D07DE7F0BC704770476E
:1019C00000180240000400508018024000690840DE
:1019D00000D001207047002A01D0816170478162E8
:1019E00070470000014880687047000058010020DF
:1019F0000248816842688918816070475801002058
:101A000010B50024032000F009F8002801D00124BB
:101A100001E000F027F8204610BD000070B50F4E21
:101A2000002471680546002915D07D20C000FEF70E
:101A30005FFB01460A480068FEF75AFB00F04AFACD
:101A4000002808D1042D06D200222946401E00F0AD
:101A500015F8356000E00124204670BD58010020D3
:101A6000C400002070470000C106C90E0120884054
:101A7000014908607047000000E100E08207D30ED2
:101A8000FF229A408907090E994000280BDA0007C7
:101A9000000F0838830808489B001818C36993434F
:101AA0000B43C3617047830804489B001818036800
:101AB00093430B430360704700ED00E000E400E057
:101AC000002801D101207047F8B5044650480D4662
:101AD0000068C007C00FA84218D24D4F38684008B0
:101AE000400028433860FFF77DFF06463868C0078E
:101AF000C00FA8420AD0FFF775FF811B45488142FD
:101B000062D83868C007C00FA842F4D12068424E9E
:101B100081070DD5400704D5B068072109030843A4
:101B2000B060B0680F2109028843A1680843B06023
:101B30002078C0072DD06068012807D0002809D080
:101B40003649096A890708D40120F8BD316889033C
:101B5000FAD502E031684905F6D5B168C908C9006F
:101B60000143B160FFF73EFF0746B0686268382165
:101B70000840D20090420CD0FFF734FFC11B25482B
:101B8000814221D8B068382108406168C900884284
:101B9000F2D11F480168C907C90FA9421CD90068C2
:101BA0001B494008400028430860FFF71BFF074619
:101BB00017480068C007C00FA8420DD0FFF712FFFA
:101BC000C11B1448814201D90320F8BD10480068A8
:101BD000C007C00FA842F1D12078400706D5B068F1
:101BE000072109038843E1680843B06000F01EF84C
:101BF000B1683C2289091140094A515CC906C90EE5
:101C0000C8400849086008480068FFF707FFF8BDAA
:101C100000200240881300000010024040100240E3
:101C200004330008C40000205801002010B51A48F1
:101C300086B01EC80394029301920091006804903C
:101C4000164881688906490F0CD081688906490FBA
:101C5000012919D080688006400F032817D0002082
:101C600006B010BD0168406889044A0F0121914007
:101C70000004400F042800D90020820068468058E4
:101C8000FEF736FA06B010BD054806B010BD0120BB
:101C9000C00306B010BD00008433000800100240ED
:101CA00000366E01002801D101207047F8B50446C6
:101CB00000783827C007824D00284FD0A8683840E8
:101CC000082814D00126B6046068B21000281FD07E
:101CD000A06800287ED029690C239943014329611B
:101CE000606890420AD128681043286016E028688E
:101CF000800333D5606800286CD02FE005210904EB
:101D0000884205D12868304328602868104304E0E1
:101D10002868904328602868B043286060680028DD
:101D20000ED0FFF75FFE06462868800316D4FFF743
:101D300059FE801BC82875D828688003F7D50DE0A8
:101D4000FFF750FE06462868800307D5FFF74AFED6
:101D5000801BC82866D828688003F7D420788007BD
:101D600071D5AE683E4023D0FF21E06801310028E4
:101D7000286858D00722D202904322691043286075
:101D8000286808432860FFF72DFE064628684005AE
:101D900007D4FFF727FE801B022843D82868400598
:101DA000F7D568686169000C0004084368604AE080
:101DB0002868400502D5E068002869D06868616934
:101DC000000C000408436860FFF70CFE0746286813
:101DD000400500E05CE009D4FFF704FEC01B0228C8
:101DE00066D828684005F7D5002E14D12868072149
:101DF000C9028843216908432860FFF717FF01469D
:101E0000A8683C22800910402E4A105CC006C00E13
:101E1000C1402D4801602D480068FFF7FFFD0028F4
:101E200036D110E044E088432860FFF7DBFD06462A
:101E30002868400507D5FFF7D5FD801B022837D855
:101E400028684005F7D42078000736D5A868204DCB
:101E50008006400F032815D0A0690028286A19D0F1
:101E6000012108432862FFF7BDFD0446286A800768
:101E700023D4FFF7B7FD001B022819D8286A800772
:101E8000F7D51AE0286A800717D5A069002814D171
:101E90000120F8BD400840002862FFF7A3FD04467A
:101EA000286A800709D5FFF79DFD001B022801D98C
:101EB0000320F8BD286A8007F5D40020F8BD000093
:101EC0000010024004330008C40000205801002024
:101ED000401002400B4910B4401E884202D910BC89
:101EE000012070470849486108480722C3691B025E
:101EF0001B0A4C042343C361002088610A6110BCA3
:101F000070470000FFFFFF0000E000E004ED00E08C
:101F1000427F012A01D10220704770B40125457724
:101F2000022282770268546893687026B4430E6870
:101F300026435660074C0268A24204D180244968B7
:101F4000A3431943916085770021417770BC08460F
:101F500070470000002C0140002801D1012070478B
:101F600010B50446807F002803D16077204600F03A
:101F70000AF80220A077211D206800F037F901201F
:101F8000A077002010BD70470221817701688A6820
:101F900001235207520F062A02D00A681A430A6028
:101FA000837700207047FEE710B501210520490323
:101FB0000007FFF70BFD0849002809D0072088819A
:101FC000CA8B80B2824202D0C8830020C88110BD73
:101FD000FF202E30F3E70000E40000207047704738
:101FE00070B5264D264C298801220B464B3B002616
:101FF000E07ACE2B1ED3002804D0032802D001287B
:1020000001D01BE0E272FF201930814202D900208A
:1020100001F024F828884B2810D2E08A401C80B2B6
:10202000E082C8280AD3E6820220E072002001F094
:1020300015F803E0012805D0022809D0E07A00282D
:1020400002D00CE0E6726271A079012804D006E0AB
:1020500062710320E07202E0012000F0FFFF0949F5
:10206000A868884202DD0422E27202E0E27A042AD1
:1020700002D1884200DAE67270BD000044020020FE
:10208000E40000200000E04070B52B4DA88A401C01
:10209000A8822878294E002401281FD13C212848F5
:1020A00000F0A8F930802A8A904208D0297A491C89
:1020B000C9B22972052903D92C72288201E02C7239
:1020C0001046F080E878002804D1A88AC82801D3F7
:1020D000002000E0062000F079F92C7068780128D3
:1020E00009D1AC823C21164800F084F970800120AF
:1020F00000F06CF96C70A87801281BD1104800F032
:1021000015FAB060FEF742FA698A80B2884208D0B8
:102110006A7A521CD2B26A72052A03D96C7268823A
:1021200001E06C720846FEF71BFAB060AC7001204B
:1021300000F04CF970BD0000E400002044020020D3
:10214000CC0100207047000010B5FFF751FC024998
:102150000020087010BD0000C00000200748416842
:10216000074842680123120C12045B031A4311430F
:1021700041600449C003886070470000000FFF1FE2
:102180000010024000ED00E0F8B50024084E27469C
:102190000C2025464543705D002803D0A8198068AF
:1021A00080477755641CE4B2052CF1D3F8BD0000DC
:1021B0000401002030B400200B4C01250C214143C8
:1021C0000B4609194A88002A07D0521E1204120C25
:1021D0004A8002D18A884A80E554401CC0B2052852
:1021E000ECD330BC704700000401002030B402681A
:1021F000124CA04204D1134670254A68AB431A43DF
:102200000F4BA04201D0984204D103252D02AA43CE
:10221000CD682A438025AA434D692A4302608A6813
:10222000C2620A688262A04201D0984201D1096963
:1022300001630121416130BC70470000002C014066
:10224000004401402021020C01D010211046020A56
:1022500001D010460839020901D01046091F820832
:1022600001D01046891E420801D0881E7047081A06
:10227000704700004900CA020243100000D0042049
:102280004A0D01D001221043044A490D914201D167
:1022900002210843012800D105207047FF070000F4
:1022A000F8B504464F1EC8000838211815461E46CA
:1022B000086849683A4606239A4310D02A463346AE
:1022C000FEF76EF83A46D200083AA3181A687F1E45
:1022D0005B68FDF7B3FF06223B469343EED1022F26
:1022E00023D0042F11D0062F2FD12A463346FEF7D4
:1022F00057F8E36AA26AFDF7A1FF2A463346FEF7C4
:102300004FF8636A226AFDF799FF2A463346FEF7C3
:1023100047F8E369A269FDF791FF2A463346FEF7C5
:102320003FF863692269FDF789FF2A463346FEF7C5
:1023300037F8E368A268FDF781FF2A463346FEF7C7
:102340002FF863682268FDF779FFF8BD002210B509
:10235000134610460149FEF78BF810BD0000F03F10
:1023600010B5FDF76BFF10BD002210B513461046E7
:102370001146FEF77DF810BD10B50721024A002076
:102380000907FEF739FA10BD01030000034A10B532
:1023900000201107FEF730FA10BD000001FDFFFF1D
:1023A00002E008C8121F08C1002AFAD1704770471E
:1023B000002001E001C1121F002AFBD1704700007C
:1023C00001490860704700006401002010B5044610
:1023D0000648FFF741F90648014604603838FEF721
:1023E000E5FE0248FFF7FAF810BD00006801002082
:1023F000A0010020F3B5002081B00F4604460090F4
:10240000002929D901986100405AFEF7B1F81E4A07
:102410001E4BFDF7C5FF00221D4BFEF729F81D4A94
:102420001D4BFDF7AFFF00221C4BFDF7B9FF012349
:1024300000229B0700F014F905460E460098FEF7AF
:10244000D7F82A463346FDF7F9FEFEF7E5F8641C97
:10245000E4B20090BC42D5D33846FEF781F801467D
:102460000098FDF7ACFEFEF7C3F800F027FFFEF77B
:10247000D3F8FEF7BDF80022094BFDF7DFFEFEF7AB
:1024800099F880B203B0F0BD8FC2F5285C0F1440FC
:1024900000FEAF4014AE47E17A14044000007140E2
:1024A0000000E03F70B51F4E0546F0890521401C35
:1024B00080B2F0810446FDF71BFE002904D130797B
:1024C00000280AD000203071681E0A214843A0422B
:1024D00005DC0020F081307170BD0120F3E70A2097
:1024E0004543281B0A21FDF719FE85B264212846C1
:1024F000FDF7FEFD0C4C215CC220FEF7BFFB0A215C
:102500002846FDF7F5FD0D460A21FDF7F1FD615C5A
:10251000C120FEF7B3FB615DC020FEF7AFFB0120D9
:1025200070BD0000E4000020D0000020024610B57D
:10253000002001464B00D35A491C1818C9B20A2979
:10254000F8D3FEF715F800220D4BFDF791FF0D4A69
:102550000D4BFDF725FF00220C4BFDF789FF0022F4
:102560000B4BFDF70FFF490049080022094BFDF70F
:102570007FFFFEF751F80849FDF7E4FD10BD0000AC
:10258000000024408FC2F5285C0F144000FEAF40CD
:10259000000008400080474000007A4494B0FFF7F4
:1025A0002FFA00240A940B200090FF200894013099
:1025B00001940390049406942648029409940B9481
:1025C000008A0121C004C00CC90340180590684668
:1025D000FFF768FB002801D0FEF786FD0720089072
:1025E00009940A9400210B9408A8FFF769FA0028BF
:1025F00001D0FEF779FD0320FFF710FA00F01CFE72
:102600001548006A400414D4FFF73CF9FFF726F997
:1026100008200C90DF20000211906F2040021290E1
:102620000CA8FFF74BF8FFF73BF8FFF709F9FFF7A6
:10263000FDF8FEF73FFBFEF797FBFEF7DFFA074CCE
:1026400001252078002802D12570FFF7B3FDFFF7A0
:102650009BFDF6E7000FFF1F00200240C000002096
:10266000F0B51FB496B084460C460246199D1898E2
:102670000390490068006300490840080193002A5C
:1026800001D0012600E000269E19FE4BF6185B10D3
:102690009E422BD36E00039F0296002F00D001278D
:1026A000F719F84EF84BBE199E421FD3039E0346FE
:1026B000F64F334309D03B469C4201D1002A04D057
:1026C000019B002A05D0012604E0002039461BB0FA
:1026D000F0BD00269E19EE4B9E4207D8039F029E36
:1026E000002F00D00127F6199E4207D92B466046DD
:1026F0002146189AFFF734FE1BB0F0BD0023002CD2
:1027000029DAE44EB04226DAE34EB04201DB02237E
:1027100021E0DE4EB0421EDBE04E070DBE19142E46
:1027200009DD3427BF1B039EFE400196BE40039F78
:10273000BE420BD00FE0039F002F0CD11427BF1B0C
:102740000646FE400196BE40864204D1019BDE074C
:10275000F60F02239B1B0E46164318D1002D16DAE6
:10276000002C03D0022B01D0012B06D00220FFF752
:1027700027FEFFF7EBFD1BB0F0BD0220FFF720FEA8
:10278000FFF7E4FD0122D20751401BB0F0BD039ECC
:10279000002E61D1BF4EB04220D1C148844201D148
:1027A000002A08D0B948814209DB002D10DB1898B7
:1027B00029461BB0F0BD0020B4491BB0F0BD002D70
:1027C00006DA01222946D207189851401BB0F0BD05
:1027D000B4497944086849681BB0F0BDAB4FB842B2
:1027E00025D1002D1FDA002904D0B14212D1002AD0
:1027F00009D018E0002A72D1A649E20F0020D207C2
:1028000011431BB0F0BD0020E20F0146D207114377
:102810001BB0F0BDB14206DA234600203946FDF771
:1028200027FE1BB0F0BD104621461BB0F0BDB142E3
:1028300012DA0126B607B54203D1234610461946DF
:10284000FEE3994EB54207D1261E05DB1046314600
:1028500000F034FD1BB0F0BD67007F081646002A6B
:1028600040D100290AD08B4A914229D1002C0EDD9B
:10287000002D1CDB002011461BB0F0BD022B16D032
:10288000002C14D0012B12D1002C14DB0FE0002CF3
:1028900028DA002D09DB012B03D000207D491BB075
:1028A000F0BD002081491BB0F0BD012B03D00020FA
:1028B00001461BB0F0BD00200121C9071BB0F0BDCF
:1028C000724A91420ED1002C01DA002B17D0022B54
:1028D00006D00020C043FDF7F7FF1BB0F0BD90E22B
:1028E0000120F8E7E217521C94461A4307D0002251
:1028F0000892664C62465B1E1A4307D009E001202D
:10290000FFF75EFDFFF730FD1BB0F0BD0022644C09
:102910000892674A90427DDD664B674A98421FDD08
:10292000914202DC002D05DB4DE05848814217DB67
:10293000002D48DD0220FFF743FDFFF71DFD054692
:102940000E460022534B21460898FDF729FD084604
:1029500071004908C00FC007014328461BB0F0BDF5
:10296000914215DA002D2EDA0220FFF729FDFFF73C
:1029700003FD05460E460022464B21460898FDF70A
:102980000FFD72005208C80FC0070243114617E03E
:102990003E4B994223DD002D15DD0220FFF710FD8F
:1029A000FFF7EAFC05460E4600223A4B21460898FE
:1029B000FDF7F6FC084671004908C00FC007014347
:1029C00028461BB0F0BD0220FFF7FAFCFFF7DEFC43
:1029D00049004908E20FD20711431BB0F0BD0022A5
:1029E00030463946FDF7CEFC012205460E46D2435D
:1029F000FDF702FF314A324BFDF7CAFC2A46334647
:102A0000FDF7CEFC0022284BFDF7C2FC07462A4604
:102A1000334600E064E0039110461946FDF7C0FC20
:102A20003A46039BFDF7BCFC074603220991520777
:102A3000244B28463146FDF7B3FC07910C90224AFF
:102A4000204B38460999FDF7ABFC074601911F4A18
:102A50001F4B28463146FDF7A3FC3A46019BFDF784
:102A600091FC07460B460246099107990C98FDF721
:102A7000E5FB00250E462846079B0C9AFDF782FCD5
:102A80003A4627E0FFFF1F00FFFF0F000000F03F66
:102A90000000E0FF0000F07F0000404301FCFFFF6A
:102AA0000000F0BF4A0C00000000E03F0000F0FF13
:102AB0000000E0410000F043FFFFEF3F5555555542
:102AC0005555D53F4715F73FFE822B6544DF5DF82E
:102AD0000BAE543E099BFDF75BFC02460B4652E1F0
:102AE000012500202D05A94207DA35223046394656
:102AF000FDF782FE06463420C0430A151218FE4830
:102B0000101803900803FD49000B01430F46FC49D0
:102B1000884201DC002003E0FA49884202DA012001
:102B2000119005E0002011900398401C7F1B03903A
:102B300011980597C200F4480F92784480184368B2
:102B40000268394630460D930292FDF71BFC07914F
:102B50000C9030460D9B029A0599FDF76FFB0246DB
:102B60000B460020E549FDF783FC09910490079B83
:102B70000C9AFDF715FC129000201090E3480D46CA
:102B8000784400680E900121781049070843119994
:102B90000D9B890440180121C90447183946029A3F
:102BA0000E98FDF7EFFB3246059BFDF7F1FB024661
:102BB0000B4629461098FDF7F3FB064602913B466B
:102BC00029460E9A1098FDF7EBFB079B0C9AFDF730
:102BD000DFFB3246029BFDF7D5FB099B049AFDF70C
:102BE000DFFB0591129A0A902B4610461946FDF715
:102BF000D7FB06460246C6480F460B4606217844D8
:102C0000FFF74EFB32463B460091049010461946B2
:102C1000FDF7C6FB009B049AFDF7C2FB06460F4674
:102C20002B461946129A1098FDF708FB059B0A9A45
:102C3000FDF7B6FB32463B46FDF700FB109A0791C5
:102C400004902B4610461946FDF7AAFBB14E002210
:102C5000334609910290FDF7F1FA079B049AFDF7BC
:102C6000EDFA00200746024633460091FDF78AFB45
:102C7000099B029AFDF786FB079B049AFDF788FBE8
:102C800006460D913A462946009B1098FDF788FBB1
:102C900007910C902B463046129A0D99FDF780FB58
:102CA00005460E463A46009B05990A98FDF778FBC3
:102CB00033462A46FDF7C2FA02460B4607460991FB
:102CC00007990C98FDF7BAFA00250E462846079B8F
:102CD0000C9AFDF757FB3A46099BFDF759FB07464F
:102CE0000722099152078C4B31462846FDF758FBC5
:102CF00007910090894A884B38460999FDF750FBA7
:102D000007460191864A874B31462846FDF748FB26
:102D10003A46019BFDF792FA834B7B440F9A9B182E
:102D20001A685B68FDF78AFA029009910398FDF72B
:102D3000CBFD05910490099B029A07990098FDF735
:102D40007DFA7A4B7B440F9A9B181A685B6817468A
:102D50000393FDF773FA059B049AFDF76FFA0E468D
:102D60002846059B049AFDF70DFB3A46039BFDF7A9
:102D700009FB079B009AFDF705FB099B029AFDF7EB
:102D800007FB02460B46199900200C900F46189835
:102D9000FDF706FB029104903B460C9A199918988E
:102DA000FDF7F0FA2A463346FDF7FAFA029B049A39
:102DB000FDF744FA09910E902A46334639460C989D
:102DC000FDF7EEFA06460F46099B0E9AFDF736FA16
:102DD000574A0D46914220DB5242AA18024310D1B5
:102DE00032463B46FDF7CEFA04900391514A524BCE
:102DF00009990E98FDF722FA039B049AFDF778FDD6
:102E00001ED20220FFF7DCFAFFF7B6FA49004908A4
:102E1000E20FD20711431BB0F0BD6A00474B5208C6
:102E20009A420DD3464AAA18024300D0CBE5324657
:102E30003B46FDF7A7FA099B0E9AFDF759FDF5D918
:102E40006800002340082C490393020D3D4B5218A3
:102E5000984223DD01200005521CD0404219500049
:102E6000400D401838497944096813468C46374963
:102E7000C1408B4312030121120B09055118142282
:102E8000101AC1400391002D01DA484203906246B6
:102E900030463946FDF776FA06460F4632463B463F
:102EA00009990E98FDF7CAF900252A46284B2846AD
:102EB0000591FDF775FA07910C90264A264B284696
:102EC0000599FDF76DFA0091029032463B4628467F
:102ED0000599FDF757FA099B0E9AFDF759FA1F4A13
:102EE0001F4BFDF75DFA009B029AFDF7A7F9074615
:102EF0000B460246099135E001FCFFFF0000F03F60
:102F00008E9803007AB60B005A0800009C08000057
:102F1000C60700000000084009C7EE3FFD033ADC89
:102F2000F5015B14E02F3EBE9A060000600600002B
:102F300000009040FE822B654715973C00CC9040E6
:102F400000346F3F0000E03FB6050000FFFF0F00B8
:102F5000432EE63F396CA80C615C20BEEF39FAFEC7
:102F6000422EE63F07990C98FDF768F905460E4694
:102F7000079B0C9AFDF706FA3A46099BFDF708FAFB
:102F800009912A4633460E9010461946FDF708FA75
:102F9000074602462F480B46059105217844FFF766
:102FA0007FF93A46059BFDF7FBF92A463346FDF7C4
:102FB000EFF90746019128463146099B0E9AFDF725
:102FC000EFF9099B0E9AFDF739F9012304910C9052
:102FD00000229B0738460199FDF7D4F905910E9020
:102FE0003A4628463146019BFDF7DAF9059B0E9AD1
:102FF000FDF73EFA049B0C9AFDF7C4F92A463346C6
:10300000FDF7C0F90022144BFDF7C2F906460398FC
:103010000D46000541190915002912DC30462946E4
:10302000039AFDF7E9FBFFF725F9042801D1FFF723
:10303000ADF930462946039AFDF7DEFB064601E06E
:1030400004E029180B46324621460898FDF7A8F9F6
:103050001BB0F0BD580400000000F03F052108221D
:103060000907002801D08A6170478A627047000012
:103070000C283DD201007944097949188F4405167E
:1030800027394B5D6F8193A5B6C704210520000742
:1030900081628022826108228262654A9162C9014E
:1030A00081626448022181620121AEE00421052091
:1030B0000007816180228261082282625C4A9162FB
:1030C000C90181625B480221816201219DE00421E6
:1030D000052000078162574A012393610823836218
:1030E000534B9962C9018162022191628021816200
:1030F000704704220520000782614E4901238B613D
:10310000082383624A4B9A62D201826202228A6257
:103110008021816270470421052000078162454AB1
:103120000223936108238362414B9962C901816242
:1031300001219162802181627047042205200007ED
:1031400082613C4902238B6108238362384B9A6277
:10315000D201826201228A62802181627047042149
:10316000052000078162CA01826108228262304A1A
:103170009162304902228A6201228A628021816240
:1031800070470421052000078161CA01826108227D
:103190008262274A9162274902228A6201228A6258
:1031A0008021816270470421052000078162CA01E5
:1031B0008262082282621E4A91621E4902228A624B
:1031C00001228A628021816270471948042181624C
:1031D000800481610821816289018162154902228E
:1031E0008A6201228A62802181627047104804212C
:1031F00081618004816208218162890181620D49B7
:1032000002228A6201228A62802181627047084814
:1032100004218161800481610821816289018162C8
:10322000044902228A6201228A628021EDE70000BD
:10323000001400500004005030B5194887B0416BAD
:10324000012319434163416B19400591416B0224ED
:1032500021434163416B21400591426B20210A4388
:103260004263406B01930840059000200290A32028
:10327000800000900520039469460007FEF716FBC6
:103280000320009069460748FEF710FB064C042512
:10329000694620460095FEF709FBA56107B030BDE1
:1032A0000010024000040050001400501821484350
:1032B000401E02D300BF401EFCD27047F8B5064640
:1032C0000C46FDF7AFFA051E0F4600D00120014362
:1032D00049000B484908411AC90F0DD0002E01D0F2
:1032E000012100E000210C4361004908401AC00F91
:1032F00002D10120FFF764F828463946F8BD0000E6
:103300000000F07F0000000000000000000000004E
:1033100000000000000000000000000000000000AD
:103320000000000001000000020000000300000097
:103330000400000006000000070000000800000074
:103340000900000000093D0000127A000024F4008A
:103350004086510100366E0100093D0000093D0024
:1033600000093D001C0FFF1F300FFF1F440FFF1F00
:10337000580FFF1F6C0FFF1F1C0FFF1F1C0FFF1F9D
:103380001C0FFF1F00093D0000127A000024F4000A
:103390004086510100366E01000000000000F03F41
:1033A000000000000000F83F0000000000000000E6
:1033B0000000004003B8E23F0000000000000000F1
:1033C00006D0CF43EBFD4C3E033333333333E33F7F
:1033D000FFAB6FDBB66DDB3F4D268F515555D53FAB
:1033E00001411DA96074D13F65DBC9934A86CD3F79
:1033F000EF4E454A287ECA3F3E5555555555C53F67
:1034000093BDBE166CC166BF2CDE25AF6A56113F58
:10341000F16BD2C541BDBBBED0A4BE726937663E5A
:1034200000000000000000004834000800000020F8
:10343000680100003C090008A4340008680100206D
:1034400000050000B023000801C593127A8012FA2B
:1034500022B9AB63CBDBA2FBEBF35BD83BD9D10446
:10346000420112060215073A011F1389206A080C4F
:103470002BD10D0C1A6402218B610E0C2BA91F0C91
:103480001A0A02212AE10C101757616B7981909B6F
:10349000AEBED4ED545D686E798696A1B5CBE329B6
:0434A0007839737193
:04000005080000C12E
:00000001FF
